{
  "address": "0xE64E672a58881D746eF73858FBcc04D6f777001C",
  "abi": [
    {
      "inputs": [
        {
          "internalType": "string",
          "name": "_baseUri",
          "type": "string"
        },
        {
          "internalType": "address",
          "name": "_lzEndpoint",
          "type": "address"
        },
        {
          "internalType": "uint256",
          "name": "_nextTokenId",
          "type": "uint256"
        },
        {
          "internalType": "uint256",
          "name": "_maxMint",
          "type": "uint256"
        },
        {
          "internalType": "string",
          "name": "_revealUrl",
          "type": "string"
        }
      ],
      "stateMutability": "nonpayable",
      "type": "constructor"
    },
    {
      "inputs": [
        {
          "internalType": "uint256",
          "name": "senderAmount",
          "type": "uint256"
        },
        {
          "internalType": "uint256",
          "name": "messageFee",
          "type": "uint256"
        }
      ],
      "name": "InsufficientMessageFee",
      "type": "error"
    },
    {
      "inputs": [
        {
          "internalType": "uint8",
          "name": "numTokens",
          "type": "uint8"
        },
        {
          "internalType": "uint256",
          "name": "currentTokenId",
          "type": "uint256"
        },
        {
          "internalType": "uint256",
          "name": "maxMint",
          "type": "uint256"
        }
      ],
      "name": "MintExceedsSupply",
      "type": "error"
    },
    {
      "inputs": [
        {
          "internalType": "uint8",
          "name": "numTokens",
          "type": "uint8"
        },
        {
          "internalType": "uint256",
          "name": "mintLimitPerTxn",
          "type": "uint256"
        }
      ],
      "name": "MintLimitPerTxn",
      "type": "error"
    },
    {
      "inputs": [
        {
          "internalType": "address",
          "name": "callerAddress",
          "type": "address"
        }
      ],
      "name": "OnlyTokenOwner",
      "type": "error"
    },
    {
      "inputs": [
        {
          "internalType": "uint16",
          "name": "chainId",
          "type": "uint16"
        }
      ],
      "name": "UnavailableChain",
      "type": "error"
    },
    {
      "anonymous": false,
      "inputs": [
        {
          "indexed": true,
          "internalType": "address",
          "name": "owner",
          "type": "address"
        },
        {
          "indexed": true,
          "internalType": "address",
          "name": "approved",
          "type": "address"
        },
        {
          "indexed": true,
          "internalType": "uint256",
          "name": "tokenId",
          "type": "uint256"
        }
      ],
      "name": "Approval",
      "type": "event"
    },
    {
      "anonymous": false,
      "inputs": [
        {
          "indexed": true,
          "internalType": "address",
          "name": "owner",
          "type": "address"
        },
        {
          "indexed": true,
          "internalType": "address",
          "name": "operator",
          "type": "address"
        },
        {
          "indexed": false,
          "internalType": "bool",
          "name": "approved",
          "type": "bool"
        }
      ],
      "name": "ApprovalForAll",
      "type": "event"
    },
    {
      "anonymous": false,
      "inputs": [
        {
          "indexed": false,
          "internalType": "uint16",
          "name": "_srcChainId",
          "type": "uint16"
        },
        {
          "indexed": false,
          "internalType": "bytes",
          "name": "_srcAddress",
          "type": "bytes"
        },
        {
          "indexed": false,
          "internalType": "uint64",
          "name": "_nonce",
          "type": "uint64"
        },
        {
          "indexed": false,
          "internalType": "bytes",
          "name": "_payload",
          "type": "bytes"
        }
      ],
      "name": "MessageFailed",
      "type": "event"
    },
    {
      "anonymous": false,
      "inputs": [
        {
          "indexed": true,
          "internalType": "address",
          "name": "previousOwner",
          "type": "address"
        },
        {
          "indexed": true,
          "internalType": "address",
          "name": "newOwner",
          "type": "address"
        }
      ],
      "name": "OwnershipTransferred",
      "type": "event"
    },
    {
      "anonymous": false,
      "inputs": [
        {
          "indexed": true,
          "internalType": "address",
          "name": "from",
          "type": "address"
        },
        {
          "indexed": true,
          "internalType": "address",
          "name": "to",
          "type": "address"
        },
        {
          "indexed": true,
          "internalType": "uint256",
          "name": "tokenId",
          "type": "uint256"
        }
      ],
      "name": "Transfer",
      "type": "event"
    },
    {
      "inputs": [],
      "name": "_owner",
      "outputs": [
        {
          "internalType": "address",
          "name": "",
          "type": "address"
        }
      ],
      "stateMutability": "view",
      "type": "function"
    },
    {
      "inputs": [
        {
          "internalType": "address",
          "name": "to",
          "type": "address"
        },
        {
          "internalType": "uint256",
          "name": "tokenId",
          "type": "uint256"
        }
      ],
      "name": "approve",
      "outputs": [],
      "stateMutability": "nonpayable",
      "type": "function"
    },
    {
      "inputs": [
        {
          "internalType": "address",
          "name": "owner",
          "type": "address"
        }
      ],
      "name": "balanceOf",
      "outputs": [
        {
          "internalType": "uint256",
          "name": "",
          "type": "uint256"
        }
      ],
      "stateMutability": "view",
      "type": "function"
    },
    {
      "inputs": [],
      "name": "donate",
      "outputs": [],
      "stateMutability": "payable",
      "type": "function"
    },
    {
      "inputs": [
        {
          "internalType": "uint16",
          "name": "",
          "type": "uint16"
        },
        {
          "internalType": "bytes",
          "name": "",
          "type": "bytes"
        },
        {
          "internalType": "uint256",
          "name": "",
          "type": "uint256"
        }
      ],
      "name": "failedMessages",
      "outputs": [
        {
          "internalType": "uint256",
          "name": "payloadLength",
          "type": "uint256"
        },
        {
          "internalType": "bytes32",
          "name": "payloadHash",
          "type": "bytes32"
        }
      ],
      "stateMutability": "view",
      "type": "function"
    },
    {
      "inputs": [],
      "name": "gasForDestinationLzReceive",
      "outputs": [
        {
          "internalType": "uint256",
          "name": "",
          "type": "uint256"
        }
      ],
      "stateMutability": "view",
      "type": "function"
    },
    {
      "inputs": [
        {
          "internalType": "uint256",
          "name": "tokenId",
          "type": "uint256"
        }
      ],
      "name": "getApproved",
      "outputs": [
        {
          "internalType": "address",
          "name": "",
          "type": "address"
        }
      ],
      "stateMutability": "view",
      "type": "function"
    },
    {
      "inputs": [
        {
          "internalType": "address",
          "name": "owner",
          "type": "address"
        },
        {
          "internalType": "address",
          "name": "operator",
          "type": "address"
        }
      ],
      "name": "isApprovedForAll",
      "outputs": [
        {
          "internalType": "bool",
          "name": "",
          "type": "bool"
        }
      ],
      "stateMutability": "view",
      "type": "function"
    },
    {
      "inputs": [
        {
          "internalType": "uint16",
          "name": "_srcChainId",
          "type": "uint16"
        },
        {
          "internalType": "bytes",
          "name": "_srcAddress",
          "type": "bytes"
        },
        {
          "internalType": "uint64",
          "name": "_nonce",
          "type": "uint64"
        },
        {
          "internalType": "bytes",
          "name": "_payload",
          "type": "bytes"
        }
      ],
      "name": "lzReceive",
      "outputs": [],
      "stateMutability": "nonpayable",
      "type": "function"
    },
    {
      "inputs": [],
      "name": "maxMint",
      "outputs": [
        {
          "internalType": "uint256",
          "name": "",
          "type": "uint256"
        }
      ],
      "stateMutability": "view",
      "type": "function"
    },
    {
      "inputs": [
        {
          "internalType": "uint8",
          "name": "numTokens",
          "type": "uint8"
        }
      ],
      "name": "mint",
      "outputs": [],
      "stateMutability": "payable",
      "type": "function"
    },
    {
      "inputs": [],
      "name": "mintLimitPerTxn",
      "outputs": [
        {
          "internalType": "uint256",
          "name": "",
          "type": "uint256"
        }
      ],
      "stateMutability": "view",
      "type": "function"
    },
    {
      "inputs": [],
      "name": "name",
      "outputs": [
        {
          "internalType": "string",
          "name": "",
          "type": "string"
        }
      ],
      "stateMutability": "view",
      "type": "function"
    },
    {
      "inputs": [],
      "name": "nextTokenId",
      "outputs": [
        {
          "internalType": "uint256",
          "name": "",
          "type": "uint256"
        }
      ],
      "stateMutability": "view",
      "type": "function"
    },
    {
      "inputs": [
        {
          "internalType": "uint16",
          "name": "_srcChainId",
          "type": "uint16"
        },
        {
          "internalType": "bytes",
          "name": "_srcAddress",
          "type": "bytes"
        },
        {
          "internalType": "uint64",
          "name": "_nonce",
          "type": "uint64"
        },
        {
          "internalType": "bytes",
          "name": "_payload",
          "type": "bytes"
        }
      ],
      "name": "onLzReceive",
      "outputs": [],
      "stateMutability": "nonpayable",
      "type": "function"
    },
    {
      "inputs": [],
      "name": "owner",
      "outputs": [
        {
          "internalType": "address",
          "name": "",
          "type": "address"
        }
      ],
      "stateMutability": "view",
      "type": "function"
    },
    {
      "inputs": [
        {
          "internalType": "uint256",
          "name": "tokenId",
          "type": "uint256"
        }
      ],
      "name": "ownerOf",
      "outputs": [
        {
          "internalType": "address",
          "name": "",
          "type": "address"
        }
      ],
      "stateMutability": "view",
      "type": "function"
    },
    {
      "inputs": [],
      "name": "renounceOwnership",
      "outputs": [],
      "stateMutability": "nonpayable",
      "type": "function"
    },
    {
      "inputs": [
        {
          "internalType": "uint16",
          "name": "_srcChainId",
          "type": "uint16"
        },
        {
          "internalType": "bytes",
          "name": "_srcAddress",
          "type": "bytes"
        },
        {
          "internalType": "uint64",
          "name": "_nonce",
          "type": "uint64"
        },
        {
          "internalType": "bytes",
          "name": "_payload",
          "type": "bytes"
        }
      ],
      "name": "retryMessage",
      "outputs": [],
      "stateMutability": "payable",
      "type": "function"
    },
    {
      "inputs": [],
      "name": "revealCollection",
      "outputs": [],
      "stateMutability": "nonpayable",
      "type": "function"
    },
    {
      "inputs": [
        {
          "internalType": "address",
          "name": "from",
          "type": "address"
        },
        {
          "internalType": "address",
          "name": "to",
          "type": "address"
        },
        {
          "internalType": "uint256",
          "name": "tokenId",
          "type": "uint256"
        }
      ],
      "name": "safeTransferFrom",
      "outputs": [],
      "stateMutability": "nonpayable",
      "type": "function"
    },
    {
      "inputs": [
        {
          "internalType": "address",
          "name": "from",
          "type": "address"
        },
        {
          "internalType": "address",
          "name": "to",
          "type": "address"
        },
        {
          "internalType": "uint256",
          "name": "tokenId",
          "type": "uint256"
        },
        {
          "internalType": "bytes",
          "name": "_data",
          "type": "bytes"
        }
      ],
      "name": "safeTransferFrom",
      "outputs": [],
      "stateMutability": "nonpayable",
      "type": "function"
    },
    {
      "inputs": [
        {
          "internalType": "address",
          "name": "operator",
          "type": "address"
        },
        {
          "internalType": "bool",
          "name": "approved",
          "type": "bool"
        }
      ],
      "name": "setApprovalForAll",
      "outputs": [],
      "stateMutability": "nonpayable",
      "type": "function"
    },
    {
      "inputs": [
        {
          "internalType": "string",
          "name": "_uri",
          "type": "string"
        }
      ],
      "name": "setBaseURI",
      "outputs": [],
      "stateMutability": "nonpayable",
      "type": "function"
    },
    {
      "inputs": [
        {
          "internalType": "uint256",
          "name": "newVal",
          "type": "uint256"
        }
      ],
      "name": "setGasForDestinationLzReceive",
      "outputs": [],
      "stateMutability": "nonpayable",
      "type": "function"
    },
    {
      "inputs": [
        {
          "internalType": "uint16",
          "name": "_chainId",
          "type": "uint16"
        },
        {
          "internalType": "bytes",
          "name": "_trustedRemote",
          "type": "bytes"
        }
      ],
      "name": "setTrustedRemote",
      "outputs": [],
      "stateMutability": "nonpayable",
      "type": "function"
    },
    {
      "inputs": [
        {
          "internalType": "bytes4",
          "name": "interfaceId",
          "type": "bytes4"
        }
      ],
      "name": "supportsInterface",
      "outputs": [
        {
          "internalType": "bool",
          "name": "",
          "type": "bool"
        }
      ],
      "stateMutability": "view",
      "type": "function"
    },
    {
      "inputs": [],
      "name": "symbol",
      "outputs": [
        {
          "internalType": "string",
          "name": "",
          "type": "string"
        }
      ],
      "stateMutability": "view",
      "type": "function"
    },
    {
      "inputs": [
        {
          "internalType": "uint256",
          "name": "tokenId",
          "type": "uint256"
        }
      ],
      "name": "tokenURI",
      "outputs": [
        {
          "internalType": "string",
          "name": "",
          "type": "string"
        }
      ],
      "stateMutability": "view",
      "type": "function"
    },
    {
      "inputs": [
        {
          "internalType": "address",
          "name": "from",
          "type": "address"
        },
        {
          "internalType": "address",
          "name": "to",
          "type": "address"
        },
        {
          "internalType": "uint256",
          "name": "tokenId",
          "type": "uint256"
        }
      ],
      "name": "transferFrom",
      "outputs": [],
      "stateMutability": "nonpayable",
      "type": "function"
    },
    {
      "inputs": [
        {
          "internalType": "address",
          "name": "newOwner",
          "type": "address"
        }
      ],
      "name": "transferOwnership",
      "outputs": [],
      "stateMutability": "nonpayable",
      "type": "function"
    },
    {
      "inputs": [
        {
          "internalType": "uint16",
          "name": "_chainId",
          "type": "uint16"
        },
        {
          "internalType": "uint256",
          "name": "tokenId",
          "type": "uint256"
        }
      ],
      "name": "traverseChains",
      "outputs": [],
      "stateMutability": "payable",
      "type": "function"
    },
    {
      "inputs": [
        {
          "internalType": "uint16",
          "name": "",
          "type": "uint16"
        }
      ],
      "name": "trustedRemoteLookup",
      "outputs": [
        {
          "internalType": "bytes",
          "name": "",
          "type": "bytes"
        }
      ],
      "stateMutability": "view",
      "type": "function"
    },
    {
      "inputs": [
        {
          "internalType": "uint256",
          "name": "amt",
          "type": "uint256"
        }
      ],
      "name": "withdraw",
      "outputs": [],
      "stateMutability": "nonpayable",
      "type": "function"
    }
  ],
  "transactionHash": "0x8e8abcdf0fd5fe5f088f8afc6fcf796bf82931f2624ec180b00d385529da4481",
  "args": [
    "ipfs://QmTRmsuXPdjb8hV6Rrh7a1Q1VKS1aUNsTeeKMRnyHbUbve/",
    "0xf69186dfBa60DdB133E91E9A4B5673624293d8F8",
    30,
    40,
    "ipfs://QmULL7LpdRoY5e7v2wPzpqJWPFXN3SeFhpwfJCE78VUgVY/hidden.json"
  ],
  "numDeployments": 1,
  "solcInputHash": "d8f0b96090d8cd84be86a4f8ce7f1ab1",
  "bytecode": "0x60a06040526002600d5562055730600e556000600f60006101000a81548160ff0219169083151502179055503480156200003857600080fd5b50604051620055043803806200550483398181016040528101906200005e919062000414565b6040518060400160405280600b81526020017f4f6d6e69546573744e46540000000000000000000000000000000000000000008152506040518060400160405280600581526020017f4f544e4654000000000000000000000000000000000000000000000000000000815250620000ea620000de620001ec60201b60201c565b620001f460201b60201c565b816001908051906020019062000102929190620002b8565b5080600290805190602001906200011b929190620002b8565b50505033600a60006101000a81548173ffffffffffffffffffffffffffffffffffffffff021916908373ffffffffffffffffffffffffffffffffffffffff16021790555083600760006101000a81548173ffffffffffffffffffffffffffffffffffffffff021916908373ffffffffffffffffffffffffffffffffffffffff16021790555084600b9080519060200190620001b8929190620002b8565b5082600c8190555081608081815250508060109080519060200190620001e0929190620002b8565b505050505050620006d0565b600033905090565b60008060009054906101000a900473ffffffffffffffffffffffffffffffffffffffff169050816000806101000a81548173ffffffffffffffffffffffffffffffffffffffff021916908373ffffffffffffffffffffffffffffffffffffffff1602179055508173ffffffffffffffffffffffffffffffffffffffff168173ffffffffffffffffffffffffffffffffffffffff167f8be0079c531659141344cd1fd0a4f28419497f9722a3daafe3b4186f6b6457e060405160405180910390a35050565b828054620002c690620005ad565b90600052602060002090601f016020900481019282620002ea576000855562000336565b82601f106200030557805160ff191683800117855562000336565b8280016001018555821562000336579182015b828111156200033557825182559160200191906001019062000318565b5b50905062000345919062000349565b5090565b5b80821115620003645760008160009055506001016200034a565b5090565b60006200037f620003798462000503565b620004da565b9050828152602081018484840111156200039e576200039d6200067c565b5b620003ab84828562000577565b509392505050565b600081519050620003c4816200069c565b92915050565b600082601f830112620003e257620003e162000677565b5b8151620003f484826020860162000368565b91505092915050565b6000815190506200040e81620006b6565b92915050565b600080600080600060a0868803121562000433576200043262000686565b5b600086015167ffffffffffffffff81111562000454576200045362000681565b5b6200046288828901620003ca565b95505060206200047588828901620003b3565b94505060406200048888828901620003fd565b93505060606200049b88828901620003fd565b925050608086015167ffffffffffffffff811115620004bf57620004be62000681565b5b620004cd88828901620003ca565b9150509295509295909350565b6000620004e6620004f9565b9050620004f48282620005e3565b919050565b6000604051905090565b600067ffffffffffffffff82111562000521576200052062000648565b5b6200052c826200068b565b9050602081019050919050565b600062000546826200054d565b9050919050565b600073ffffffffffffffffffffffffffffffffffffffff82169050919050565b6000819050919050565b60005b83811015620005975780820151818401526020810190506200057a565b83811115620005a7576000848401525b50505050565b60006002820490506001821680620005c657607f821691505b60208210811415620005dd57620005dc62000619565b5b50919050565b620005ee826200068b565b810181811067ffffffffffffffff8211171562000610576200060f62000648565b5b80604052505050565b7f4e487b7100000000000000000000000000000000000000000000000000000000600052602260045260246000fd5b7f4e487b7100000000000000000000000000000000000000000000000000000000600052604160045260246000fd5b600080fd5b600080fd5b600080fd5b600080fd5b6000601f19601f8301169050919050565b620006a78162000539565b8114620006b357600080fd5b50565b620006c1816200056d565b8114620006cd57600080fd5b50565b608051614e0a620006fa60003960008181611184015281816111bf01526113a10152614e0a6000f3fe6080604052600436106101f85760003560e01c806375794a3c1161010d578063b88d4fde116100a0578063e985e9c51161006f578063e985e9c5146106f2578063eb8d72b71461072f578063ed88c68e14610758578063f2fde38b14610762578063f3234f401461078b576101f8565b8063b88d4fde14610654578063c87b56dd1461067d578063cf89fa03146106ba578063d1deba1f146106d6576101f8565b806395d89b41116100dc57806395d89b41146105aa57806395f4eda7146105d5578063a22cb46514610600578063b2bdfa7b14610629576101f8565b806375794a3c146104ed5780638da5cb5b146105185780638ee7491214610543578063943fb87214610581576101f8565b806340d0b4a9116101905780636ecd23061161015f5780636ecd23061461041557806370a0823114610431578063715018a61461046e5780637501f741146104855780637533d788146104b0576101f8565b806340d0b4a91461036f57806342842e0e1461038657806355f804b3146103af5780636352211e146103d8576101f8565b8063095ea7b3116101cc578063095ea7b3146102cb5780631c37a822146102f457806323b872dd1461031d5780632e1a7d4d14610346576101f8565b80621d3567146101fd57806301ffc9a71461022657806306fdde0314610263578063081812fc1461028e575b600080fd5b34801561020957600080fd5b50610224600480360381019061021f9190613505565b6107b6565b005b34801561023257600080fd5b5061024d600480360381019061024891906132be565b6109f8565b60405161025a9190613d87565b60405180910390f35b34801561026f57600080fd5b50610278610ada565b6040516102859190613dc4565b60405180910390f35b34801561029a57600080fd5b506102b560048036038101906102b091906135e4565b610b6c565b6040516102c29190613cf7565b60405180910390f35b3480156102d757600080fd5b506102f260048036038101906102ed919061327e565b610bf1565b005b34801561030057600080fd5b5061031b60048036038101906103169190613505565b610d09565b005b34801561032957600080fd5b50610344600480360381019061033f9190613168565b610d89565b005b34801561035257600080fd5b5061036d600480360381019061036891906135e4565b610de9565b005b34801561037b57600080fd5b50610384610f37565b005b34801561039257600080fd5b506103ad60048036038101906103a89190613168565b610fd0565b005b3480156103bb57600080fd5b506103d660048036038101906103d19190613318565b610ff0565b005b3480156103e457600080fd5b506103ff60048036038101906103fa91906135e4565b611082565b60405161040c9190613cf7565b60405180910390f35b61042f600480360381019061042a9190613651565b611134565b005b34801561043d57600080fd5b50610458600480360381019061045391906130bb565b61125f565b6040516104659190614220565b60405180910390f35b34801561047a57600080fd5b50610483611317565b005b34801561049157600080fd5b5061049a61139f565b6040516104a79190614220565b60405180910390f35b3480156104bc57600080fd5b506104d760048036038101906104d29190613365565b6113c3565b6040516104e49190613da2565b60405180910390f35b3480156104f957600080fd5b50610502611463565b60405161050f9190614220565b60405180910390f35b34801561052457600080fd5b5061052d611469565b60405161053a9190613cf7565b60405180910390f35b34801561054f57600080fd5b5061056a600480360381019061056591906133f2565b611492565b60405161057892919061423b565b60405180910390f35b34801561058d57600080fd5b506105a860048036038101906105a391906135e4565b6114e6565b005b3480156105b657600080fd5b506105bf61156c565b6040516105cc9190613dc4565b60405180910390f35b3480156105e157600080fd5b506105ea6115fe565b6040516105f79190614220565b60405180910390f35b34801561060c57600080fd5b506106276004803603810190610622919061323e565b611604565b005b34801561063557600080fd5b5061063e61161a565b60405161064b9190613cf7565b60405180910390f35b34801561066057600080fd5b5061067b600480360381019061067691906131bb565b611640565b005b34801561068957600080fd5b506106a4600480360381019061069f91906135e4565b6116a2565b6040516106b19190613dc4565b60405180910390f35b6106d460048036038101906106cf91906135a4565b611763565b005b6106f060048036038101906106eb9190613461565b611a60565b005b3480156106fe57600080fd5b5061071960048036038101906107149190613128565b611c00565b6040516107269190613d87565b60405180910390f35b34801561073b57600080fd5b5061075660048036038101906107519190613392565b611c94565b005b610760611d40565b005b34801561076e57600080fd5b50610789600480360381019061078491906130bb565b611d42565b005b34801561079757600080fd5b506107a0611e3a565b6040516107ad9190614220565b60405180910390f35b600760009054906101000a900473ffffffffffffffffffffffffffffffffffffffff1673ffffffffffffffffffffffffffffffffffffffff163373ffffffffffffffffffffffffffffffffffffffff161461081057600080fd5b600960008561ffff1661ffff168152602001908152602001600020805461083690614562565b9050835114801561087c5750600960008561ffff1661ffff16815260200190815260200160002060405161086a9190613c7b565b60405180910390208380519060200120145b6108bb576040517f08c379a00000000000000000000000000000000000000000000000000000000081526004016108b290613fc6565b60405180910390fd5b3073ffffffffffffffffffffffffffffffffffffffff16631c37a822858585856040518563ffffffff1660e01b81526004016108fa9493929190614157565b600060405180830381600087803b15801561091457600080fd5b505af1925050508015610925575060015b6109f1576040518060400160405280825181526020018280519060200120815250600860008661ffff1661ffff1681526020019081526020016000208460405161096f9190613c64565b908152602001604051809103902060008467ffffffffffffffff16815260200190815260200160002060008201518160000155602082015181600101559050507fe6f254030bcb01ffd20558175c13fcaed6d1520be7becee4c961b65f79243b0d848484846040516109e49493929190614157565b60405180910390a16109f2565b5b50505050565b60007f80ac58cd000000000000000000000000000000000000000000000000000000007bffffffffffffffffffffffffffffffffffffffffffffffffffffffff1916827bffffffffffffffffffffffffffffffffffffffffffffffffffffffff19161480610ac357507f5b5e139f000000000000000000000000000000000000000000000000000000007bffffffffffffffffffffffffffffffffffffffffffffffffffffffff1916827bffffffffffffffffffffffffffffffffffffffffffffffffffffffff1916145b80610ad35750610ad282611e40565b5b9050919050565b606060018054610ae990614562565b80601f0160208091040260200160405190810160405280929190818152602001828054610b1590614562565b8015610b625780601f10610b3757610100808354040283529160200191610b62565b820191906000526020600020905b815481529060010190602001808311610b4557829003601f168201915b5050505050905090565b6000610b7782611eaa565b610bb6576040517f08c379a0000000000000000000000000000000000000000000000000000000008152600401610bad90613f86565b60405180910390fd5b6005600083815260200190815260200160002060009054906101000a900473ffffffffffffffffffffffffffffffffffffffff169050919050565b6000610bfc82611082565b90508073ffffffffffffffffffffffffffffffffffffffff168373ffffffffffffffffffffffffffffffffffffffff161415610c6d576040517f08c379a0000000000000000000000000000000000000000000000000000000008152600401610c6490614006565b60405180910390fd5b8073ffffffffffffffffffffffffffffffffffffffff16610c8c611f16565b73ffffffffffffffffffffffffffffffffffffffff161480610cbb5750610cba81610cb5611f16565b611c00565b5b610cfa576040517f08c379a0000000000000000000000000000000000000000000000000000000008152600401610cf190613ee6565b60405180910390fd5b610d048383611f1e565b505050565b3073ffffffffffffffffffffffffffffffffffffffff163373ffffffffffffffffffffffffffffffffffffffff1614610d77576040517f08c379a0000000000000000000000000000000000000000000000000000000008152600401610d6e90613f46565b60405180910390fd5b610d8384848484611fd7565b50505050565b610d9a610d94611f16565b82612004565b610dd9576040517f08c379a0000000000000000000000000000000000000000000000000000000008152600401610dd090614026565b60405180910390fd5b610de48383836120e2565b505050565b610df1611f16565b73ffffffffffffffffffffffffffffffffffffffff16610e0f611469565b73ffffffffffffffffffffffffffffffffffffffff1614610e65576040517f08c379a0000000000000000000000000000000000000000000000000000000008152600401610e5c90613fa6565b60405180910390fd5b6000600a60009054906101000a900473ffffffffffffffffffffffffffffffffffffffff1673ffffffffffffffffffffffffffffffffffffffff1682604051610ead90613cb6565b60006040518083038185875af1925050503d8060008114610eea576040519150601f19603f3d011682016040523d82523d6000602084013e610eef565b606091505b5050905080610f33576040517f08c379a0000000000000000000000000000000000000000000000000000000008152600401610f2a90614066565b60405180910390fd5b5050565b610f3f611f16565b73ffffffffffffffffffffffffffffffffffffffff16610f5d611469565b73ffffffffffffffffffffffffffffffffffffffff1614610fb3576040517f08c379a0000000000000000000000000000000000000000000000000000000008152600401610faa90613fa6565b60405180910390fd5b6001600f60006101000a81548160ff021916908315150217905550565b610feb83838360405180602001604052806000815250611640565b505050565b610ff8611f16565b73ffffffffffffffffffffffffffffffffffffffff16611016611469565b73ffffffffffffffffffffffffffffffffffffffff161461106c576040517f08c379a000000000000000000000000000000000000000000000000000000000815260040161106390613fa6565b60405180910390fd5b8181600b919061107d929190612da4565b505050565b6000806003600084815260200190815260200160002060009054906101000a900473ffffffffffffffffffffffffffffffffffffffff169050600073ffffffffffffffffffffffffffffffffffffffff168173ffffffffffffffffffffffffffffffffffffffff16141561112b576040517f08c379a000000000000000000000000000000000000000000000000000000000815260040161112290613f26565b60405180910390fd5b80915050919050565b600d548160ff1611156111825780600d546040517fceff16fc00000000000000000000000000000000000000000000000000000000815260040161117992919061428d565b60405180910390fd5b7f00000000000000000000000000000000000000000000000000000000000000008160ff16600c546111b491906143a6565b1061121c5780600c547f00000000000000000000000000000000000000000000000000000000000000006040517f72ee72a5000000000000000000000000000000000000000000000000000000008152600401611213939291906142b6565b60405180910390fd5b60005b8160ff1681101561125b5761124833600c6000815461123d906145c5565b919050819055612349565b8080611253906145c5565b91505061121f565b5050565b60008073ffffffffffffffffffffffffffffffffffffffff168273ffffffffffffffffffffffffffffffffffffffff1614156112d0576040517f08c379a00000000000000000000000000000000000000000000000000000000081526004016112c790613f06565b60405180910390fd5b600460008373ffffffffffffffffffffffffffffffffffffffff1673ffffffffffffffffffffffffffffffffffffffff168152602001908152602001600020549050919050565b61131f611f16565b73ffffffffffffffffffffffffffffffffffffffff1661133d611469565b73ffffffffffffffffffffffffffffffffffffffff1614611393576040517f08c379a000000000000000000000000000000000000000000000000000000000815260040161138a90613fa6565b60405180910390fd5b61139d6000612367565b565b7f000000000000000000000000000000000000000000000000000000000000000081565b600960205280600052604060002060009150905080546113e290614562565b80601f016020809104026020016040519081016040528092919081815260200182805461140e90614562565b801561145b5780601f106114305761010080835404028352916020019161145b565b820191906000526020600020905b81548152906001019060200180831161143e57829003601f168201915b505050505081565b600c5481565b60008060009054906101000a900473ffffffffffffffffffffffffffffffffffffffff16905090565b60086020528260005260406000208280516020810182018051848252602083016020850120818352809550505050505060205280600052604060002060009250925050508060000154908060010154905082565b6114ee611f16565b73ffffffffffffffffffffffffffffffffffffffff1661150c611469565b73ffffffffffffffffffffffffffffffffffffffff1614611562576040517f08c379a000000000000000000000000000000000000000000000000000000000815260040161155990613fa6565b60405180910390fd5b80600e8190555050565b60606002805461157b90614562565b80601f01602080910402602001604051908101604052809291908181526020018280546115a790614562565b80156115f45780601f106115c9576101008083540402835291602001916115f4565b820191906000526020600020905b8154815290600101906020018083116115d757829003601f168201915b5050505050905090565b600d5481565b61161661160f611f16565b838361242b565b5050565b600a60009054906101000a900473ffffffffffffffffffffffffffffffffffffffff1681565b61165161164b611f16565b83612004565b611690576040517f08c379a000000000000000000000000000000000000000000000000000000000815260040161168790614026565b60405180910390fd5b61169c84848484612598565b50505050565b606060011515600f60009054906101000a900460ff16151514156116d0576116c9826125f4565b905061175e565b601080546116dd90614562565b80601f016020809104026020016040519081016040528092919081815260200182805461170990614562565b80156117565780601f1061172b57610100808354040283529160200191611756565b820191906000526020600020905b81548152906001019060200180831161173957829003601f168201915b505050505090505b919050565b8061176d81611082565b73ffffffffffffffffffffffffffffffffffffffff163373ffffffffffffffffffffffffffffffffffffffff16146117dc57336040517fef1d23930000000000000000000000000000000000000000000000000000000081526004016117d39190613cf7565b60405180910390fd5b6000600960008561ffff1661ffff168152602001908152602001600020805461180490614562565b9050141561184957826040517f12263be10000000000000000000000000000000000000000000000000000000081526004016118409190614086565b60405180910390fd5b6118528261269b565b60003383604051602001611867929190613d5e565b6040516020818303038152906040529050600060019050600081600e54604051602001611895929190613ccb565b60405160208183030381529060405290506000600760009054906101000a900473ffffffffffffffffffffffffffffffffffffffff1673ffffffffffffffffffffffffffffffffffffffff166340a7bb108830876000876040518663ffffffff1660e01b815260040161190c9594939291906140a1565b604080518083038186803b15801561192357600080fd5b505afa158015611937573d6000803e3d6000fd5b505050506040513d601f19601f8201168201806040525081019061195b9190613611565b5090508034116119a45734816040517f955eeb6900000000000000000000000000000000000000000000000000000000815260040161199b929190614264565b60405180910390fd5b600760009054906101000a900473ffffffffffffffffffffffffffffffffffffffff1673ffffffffffffffffffffffffffffffffffffffff1663c58031003489600960008c61ffff1661ffff16815260200190815260200160002088336000896040518863ffffffff1660e01b8152600401611a25969594939291906141aa565b6000604051808303818588803b158015611a3e57600080fd5b505af1158015611a52573d6000803e3d6000fd5b505050505050505050505050565b6000600860008761ffff1661ffff16815260200190815260200160002085604051611a8b9190613c64565b908152602001604051809103902060008567ffffffffffffffff16815260200190815260200160002090506000801b81600101541415611b00576040517f08c379a0000000000000000000000000000000000000000000000000000000008152600401611af790614046565b60405180910390fd5b806000015483839050148015611b30575080600101548383604051611b26929190613c4b565b6040518091039020145b611b6f576040517f08c379a0000000000000000000000000000000000000000000000000000000008152600401611b6690613ea6565b60405180910390fd5b600081600001819055506000801b81600101819055503073ffffffffffffffffffffffffffffffffffffffff16631c37a82287878787876040518663ffffffff1660e01b8152600401611bc6959493929190614102565b600060405180830381600087803b158015611be057600080fd5b505af1158015611bf4573d6000803e3d6000fd5b50505050505050505050565b6000600660008473ffffffffffffffffffffffffffffffffffffffff1673ffffffffffffffffffffffffffffffffffffffff16815260200190815260200160002060008373ffffffffffffffffffffffffffffffffffffffff1673ffffffffffffffffffffffffffffffffffffffff16815260200190815260200160002060009054906101000a900460ff16905092915050565b611c9c611f16565b73ffffffffffffffffffffffffffffffffffffffff16611cba611469565b73ffffffffffffffffffffffffffffffffffffffff1614611d10576040517f08c379a0000000000000000000000000000000000000000000000000000000008152600401611d0790613fa6565b60405180910390fd5b8181600960008661ffff1661ffff1681526020019081526020016000209190611d3a929190612e2a565b50505050565b565b611d4a611f16565b73ffffffffffffffffffffffffffffffffffffffff16611d68611469565b73ffffffffffffffffffffffffffffffffffffffff1614611dbe576040517f08c379a0000000000000000000000000000000000000000000000000000000008152600401611db590613fa6565b60405180910390fd5b600073ffffffffffffffffffffffffffffffffffffffff168173ffffffffffffffffffffffffffffffffffffffff161415611e2e576040517f08c379a0000000000000000000000000000000000000000000000000000000008152600401611e2590613e06565b60405180910390fd5b611e3781612367565b50565b600e5481565b60007f01ffc9a7000000000000000000000000000000000000000000000000000000007bffffffffffffffffffffffffffffffffffffffffffffffffffffffff1916827bffffffffffffffffffffffffffffffffffffffffffffffffffffffff1916149050919050565b60008073ffffffffffffffffffffffffffffffffffffffff166003600084815260200190815260200160002060009054906101000a900473ffffffffffffffffffffffffffffffffffffffff1673ffffffffffffffffffffffffffffffffffffffff1614159050919050565b600033905090565b816005600083815260200190815260200160002060006101000a81548173ffffffffffffffffffffffffffffffffffffffff021916908373ffffffffffffffffffffffffffffffffffffffff160217905550808273ffffffffffffffffffffffffffffffffffffffff16611f9183611082565b73ffffffffffffffffffffffffffffffffffffffff167f8c5be1e5ebec7d5bd14f71427d1e84f3dd0314c0f7b2291e5b200ac8c7c3b92560405160405180910390a45050565b60008082806020019051810190611fee91906130e8565b91509150611ffc8282612349565b505050505050565b600061200f82611eaa565b61204e576040517f08c379a000000000000000000000000000000000000000000000000000000000815260040161204590613ec6565b60405180910390fd5b600061205983611082565b90508073ffffffffffffffffffffffffffffffffffffffff168473ffffffffffffffffffffffffffffffffffffffff16148061209b575061209a8185611c00565b5b806120d957508373ffffffffffffffffffffffffffffffffffffffff166120c184610b6c565b73ffffffffffffffffffffffffffffffffffffffff16145b91505092915050565b8273ffffffffffffffffffffffffffffffffffffffff1661210282611082565b73ffffffffffffffffffffffffffffffffffffffff1614612158576040517f08c379a000000000000000000000000000000000000000000000000000000000815260040161214f90613e26565b60405180910390fd5b600073ffffffffffffffffffffffffffffffffffffffff168273ffffffffffffffffffffffffffffffffffffffff1614156121c8576040517f08c379a00000000000000000000000000000000000000000000000000000000081526004016121bf90613e66565b60405180910390fd5b6121d38383836127b8565b6121de600082611f1e565b6001600460008573ffffffffffffffffffffffffffffffffffffffff1673ffffffffffffffffffffffffffffffffffffffff168152602001908152602001600020600082825461222e919061442d565b925050819055506001600460008473ffffffffffffffffffffffffffffffffffffffff1673ffffffffffffffffffffffffffffffffffffffff168152602001908152602001600020600082825461228591906143a6565b92505081905550816003600083815260200190815260200160002060006101000a81548173ffffffffffffffffffffffffffffffffffffffff021916908373ffffffffffffffffffffffffffffffffffffffff160217905550808273ffffffffffffffffffffffffffffffffffffffff168473ffffffffffffffffffffffffffffffffffffffff167fddf252ad1be2c89b69c2b068fc378daa952ba7f163c4a11628f55a4df523b3ef60405160405180910390a46123448383836127bd565b505050565b6123638282604051806020016040528060008152506127c2565b5050565b60008060009054906101000a900473ffffffffffffffffffffffffffffffffffffffff169050816000806101000a81548173ffffffffffffffffffffffffffffffffffffffff021916908373ffffffffffffffffffffffffffffffffffffffff1602179055508173ffffffffffffffffffffffffffffffffffffffff168173ffffffffffffffffffffffffffffffffffffffff167f8be0079c531659141344cd1fd0a4f28419497f9722a3daafe3b4186f6b6457e060405160405180910390a35050565b8173ffffffffffffffffffffffffffffffffffffffff168373ffffffffffffffffffffffffffffffffffffffff16141561249a576040517f08c379a000000000000000000000000000000000000000000000000000000000815260040161249190613e86565b60405180910390fd5b80600660008573ffffffffffffffffffffffffffffffffffffffff1673ffffffffffffffffffffffffffffffffffffffff16815260200190815260200160002060008473ffffffffffffffffffffffffffffffffffffffff1673ffffffffffffffffffffffffffffffffffffffff16815260200190815260200160002060006101000a81548160ff0219169083151502179055508173ffffffffffffffffffffffffffffffffffffffff168373ffffffffffffffffffffffffffffffffffffffff167f17307eab39ab6107e8899845ad3d59bd9653f200f220920489ca2b5937696c318360405161258b9190613d87565b60405180910390a3505050565b6125a38484846120e2565b6125af8484848461281d565b6125ee576040517f08c379a00000000000000000000000000000000000000000000000000000000081526004016125e590613de6565b60405180910390fd5b50505050565b60606125ff82611eaa565b61263e576040517f08c379a000000000000000000000000000000000000000000000000000000000815260040161263590613fe6565b60405180910390fd5b60006126486129b4565b905060008151116126685760405180602001604052806000815250612693565b8061267284612a46565b604051602001612683929190613c92565b6040516020818303038152906040525b915050919050565b60006126a682611082565b90506126b4816000846127b8565b6126bf600083611f1e565b6001600460008373ffffffffffffffffffffffffffffffffffffffff1673ffffffffffffffffffffffffffffffffffffffff168152602001908152602001600020600082825461270f919061442d565b925050819055506003600083815260200190815260200160002060006101000a81549073ffffffffffffffffffffffffffffffffffffffff021916905581600073ffffffffffffffffffffffffffffffffffffffff168273ffffffffffffffffffffffffffffffffffffffff167fddf252ad1be2c89b69c2b068fc378daa952ba7f163c4a11628f55a4df523b3ef60405160405180910390a46127b4816000846127bd565b5050565b505050565b505050565b6127cc8383612ba7565b6127d9600084848461281d565b612818576040517f08c379a000000000000000000000000000000000000000000000000000000000815260040161280f90613de6565b60405180910390fd5b505050565b600061283e8473ffffffffffffffffffffffffffffffffffffffff16612d81565b156129a7578373ffffffffffffffffffffffffffffffffffffffff1663150b7a02612867611f16565b8786866040518563ffffffff1660e01b81526004016128899493929190613d12565b602060405180830381600087803b1580156128a357600080fd5b505af19250505080156128d457506040513d601f19601f820116820180604052508101906128d191906132eb565b60015b612957573d8060008114612904576040519150601f19603f3d011682016040523d82523d6000602084013e612909565b606091505b5060008151141561294f576040517f08c379a000000000000000000000000000000000000000000000000000000000815260040161294690613de6565b60405180910390fd5b805181602001fd5b63150b7a0260e01b7bffffffffffffffffffffffffffffffffffffffffffffffffffffffff1916817bffffffffffffffffffffffffffffffffffffffffffffffffffffffff1916149150506129ac565b600190505b949350505050565b6060600b80546129c390614562565b80601f01602080910402602001604051908101604052809291908181526020018280546129ef90614562565b8015612a3c5780601f10612a1157610100808354040283529160200191612a3c565b820191906000526020600020905b815481529060010190602001808311612a1f57829003601f168201915b5050505050905090565b60606000821415612a8e576040518060400160405280600181526020017f30000000000000000000000000000000000000000000000000000000000000008152509050612ba2565b600082905060005b60008214612ac0578080612aa9906145c5565b915050600a82612ab991906143fc565b9150612a96565b60008167ffffffffffffffff811115612adc57612adb614717565b5b6040519080825280601f01601f191660200182016040528015612b0e5781602001600182028036833780820191505090505b5090505b60008514612b9b57600182612b27919061442d565b9150600a85612b36919061462a565b6030612b4291906143a6565b60f81b818381518110612b5857612b576146e8565b5b60200101907effffffffffffffffffffffffffffffffffffffffffffffffffffffffffffff1916908160001a905350600a85612b9491906143fc565b9450612b12565b8093505050505b919050565b600073ffffffffffffffffffffffffffffffffffffffff168273ffffffffffffffffffffffffffffffffffffffff161415612c17576040517f08c379a0000000000000000000000000000000000000000000000000000000008152600401612c0e90613f66565b60405180910390fd5b612c2081611eaa565b15612c60576040517f08c379a0000000000000000000000000000000000000000000000000000000008152600401612c5790613e46565b60405180910390fd5b612c6c600083836127b8565b6001600460008473ffffffffffffffffffffffffffffffffffffffff1673ffffffffffffffffffffffffffffffffffffffff1681526020019081526020016000206000828254612cbc91906143a6565b92505081905550816003600083815260200190815260200160002060006101000a81548173ffffffffffffffffffffffffffffffffffffffff021916908373ffffffffffffffffffffffffffffffffffffffff160217905550808273ffffffffffffffffffffffffffffffffffffffff16600073ffffffffffffffffffffffffffffffffffffffff167fddf252ad1be2c89b69c2b068fc378daa952ba7f163c4a11628f55a4df523b3ef60405160405180910390a4612d7d600083836127bd565b5050565b6000808273ffffffffffffffffffffffffffffffffffffffff163b119050919050565b828054612db090614562565b90600052602060002090601f016020900481019282612dd25760008555612e19565b82601f10612deb57803560ff1916838001178555612e19565b82800160010185558215612e19579182015b82811115612e18578235825591602001919060010190612dfd565b5b509050612e269190612eb0565b5090565b828054612e3690614562565b90600052602060002090601f016020900481019282612e585760008555612e9f565b82601f10612e7157803560ff1916838001178555612e9f565b82800160010185558215612e9f579182015b82811115612e9e578235825591602001919060010190612e83565b5b509050612eac9190612eb0565b5090565b5b80821115612ec9576000816000905550600101612eb1565b5090565b6000612ee0612edb84614312565b6142ed565b905082815260208101848484011115612efc57612efb614755565b5b612f07848285614520565b509392505050565b600081359050612f1e81614d1c565b92915050565b600081519050612f3381614d33565b92915050565b600081359050612f4881614d4a565b92915050565b600081359050612f5d81614d61565b92915050565b600081519050612f7281614d61565b92915050565b60008083601f840112612f8e57612f8d61474b565b5b8235905067ffffffffffffffff811115612fab57612faa614746565b5b602083019150836001820283011115612fc757612fc6614750565b5b9250929050565b600082601f830112612fe357612fe261474b565b5b8135612ff3848260208601612ecd565b91505092915050565b60008083601f8401126130125761301161474b565b5b8235905067ffffffffffffffff81111561302f5761302e614746565b5b60208301915083600182028301111561304b5761304a614750565b5b9250929050565b60008135905061306181614d78565b92915050565b60008135905061307681614d8f565b92915050565b60008151905061308b81614d8f565b92915050565b6000813590506130a081614da6565b92915050565b6000813590506130b581614dbd565b92915050565b6000602082840312156130d1576130d061475f565b5b60006130df84828501612f0f565b91505092915050565b600080604083850312156130ff576130fe61475f565b5b600061310d85828601612f24565b925050602061311e8582860161307c565b9150509250929050565b6000806040838503121561313f5761313e61475f565b5b600061314d85828601612f0f565b925050602061315e85828601612f0f565b9150509250929050565b6000806000606084860312156131815761318061475f565b5b600061318f86828701612f0f565b93505060206131a086828701612f0f565b92505060406131b186828701613067565b9150509250925092565b600080600080608085870312156131d5576131d461475f565b5b60006131e387828801612f0f565b94505060206131f487828801612f0f565b935050604061320587828801613067565b925050606085013567ffffffffffffffff8111156132265761322561475a565b5b61323287828801612fce565b91505092959194509250565b600080604083850312156132555761325461475f565b5b600061326385828601612f0f565b925050602061327485828601612f39565b9150509250929050565b600080604083850312156132955761329461475f565b5b60006132a385828601612f0f565b92505060206132b485828601613067565b9150509250929050565b6000602082840312156132d4576132d361475f565b5b60006132e284828501612f4e565b91505092915050565b6000602082840312156133015761330061475f565b5b600061330f84828501612f63565b91505092915050565b6000806020838503121561332f5761332e61475f565b5b600083013567ffffffffffffffff81111561334d5761334c61475a565b5b61335985828601612ffc565b92509250509250929050565b60006020828403121561337b5761337a61475f565b5b600061338984828501613052565b91505092915050565b6000806000604084860312156133ab576133aa61475f565b5b60006133b986828701613052565b935050602084013567ffffffffffffffff8111156133da576133d961475a565b5b6133e686828701612f78565b92509250509250925092565b60008060006060848603121561340b5761340a61475f565b5b600061341986828701613052565b935050602084013567ffffffffffffffff81111561343a5761343961475a565b5b61344686828701612fce565b925050604061345786828701613067565b9150509250925092565b60008060008060006080868803121561347d5761347c61475f565b5b600061348b88828901613052565b955050602086013567ffffffffffffffff8111156134ac576134ab61475a565b5b6134b888828901612fce565b94505060406134c988828901613091565b935050606086013567ffffffffffffffff8111156134ea576134e961475a565b5b6134f688828901612f78565b92509250509295509295909350565b6000806000806080858703121561351f5761351e61475f565b5b600061352d87828801613052565b945050602085013567ffffffffffffffff81111561354e5761354d61475a565b5b61355a87828801612fce565b935050604061356b87828801613091565b925050606085013567ffffffffffffffff81111561358c5761358b61475a565b5b61359887828801612fce565b91505092959194509250565b600080604083850312156135bb576135ba61475f565b5b60006135c985828601613052565b92505060206135da85828601613067565b9150509250929050565b6000602082840312156135fa576135f961475f565b5b600061360884828501613067565b91505092915050565b600080604083850312156136285761362761475f565b5b60006136368582860161307c565b92505060206136478582860161307c565b9150509250929050565b6000602082840312156136675761366661475f565b5b6000613675848285016130a6565b91505092915050565b61368781614473565b82525050565b61369681614461565b82525050565b6136a581614485565b82525050565b6136b481614491565b82525050565b60006136c6838561436e565b93506136d3838584614520565b6136dc83614764565b840190509392505050565b60006136f3838561437f565b9350613700838584614520565b82840190509392505050565b600061371782614358565b613721818561436e565b935061373181856020860161452f565b61373a81614764565b840191505092915050565b600061375082614358565b61375a818561437f565b935061376a81856020860161452f565b80840191505092915050565b6000815461378381614562565b61378d818661436e565b945060018216600081146137a857600181146137ba576137ed565b60ff19831686526020860193506137ed565b6137c385614343565b60005b838110156137e5578154818901526001820191506020810190506137c6565b808801955050505b50505092915050565b6000815461380381614562565b61380d818661437f565b9450600182166000811461382857600181146138395761386c565b60ff1983168652818601935061386c565b61384285614343565b60005b8381101561386457815481890152600182019150602081019050613845565b838801955050505b50505092915050565b600061388082614363565b61388a818561438a565b935061389a81856020860161452f565b6138a381614764565b840191505092915050565b60006138b982614363565b6138c3818561439b565b93506138d381856020860161452f565b80840191505092915050565b60006138ec60328361438a565b91506138f782614782565b604082019050919050565b600061390f60268361438a565b915061391a826147d1565b604082019050919050565b600061393260258361438a565b915061393d82614820565b604082019050919050565b6000613955601c8361438a565b91506139608261486f565b602082019050919050565b600061397860248361438a565b915061398382614898565b604082019050919050565b600061399b60198361438a565b91506139a6826148e7565b602082019050919050565b60006139be601a8361438a565b91506139c982614910565b602082019050919050565b60006139e1602c8361438a565b91506139ec82614939565b604082019050919050565b6000613a0460388361438a565b9150613a0f82614988565b604082019050919050565b6000613a27602a8361438a565b9150613a32826149d7565b604082019050919050565b6000613a4a60298361438a565b9150613a5582614a26565b604082019050919050565b6000613a6d602b8361438a565b9150613a7882614a75565b604082019050919050565b6000613a9060208361438a565b9150613a9b82614ac4565b602082019050919050565b6000613ab3602c8361438a565b9150613abe82614aed565b604082019050919050565b6000613ad660208361438a565b9150613ae182614b3c565b602082019050919050565b6000613af960348361438a565b9150613b0482614b65565b604082019050919050565b6000613b1c602f8361438a565b9150613b2782614bb4565b604082019050919050565b6000613b3f60218361438a565b9150613b4a82614c03565b604082019050919050565b6000613b6260008361437f565b9150613b6d82614c52565b600082019050919050565b6000613b8560318361438a565b9150613b9082614c55565b604082019050919050565b6000613ba860268361438a565b9150613bb382614ca4565b604082019050919050565b6000613bcb601c8361438a565b9150613bd682614cf3565b602082019050919050565b613bea816144c7565b82525050565b613c01613bfc826144c7565b61460e565b82525050565b613c10816144f5565b82525050565b613c27613c22826144f5565b614620565b82525050565b613c36816144ff565b82525050565b613c4581614513565b82525050565b6000613c588284866136e7565b91508190509392505050565b6000613c708284613745565b915081905092915050565b6000613c8782846137f6565b915081905092915050565b6000613c9e82856138ae565b9150613caa82846138ae565b91508190509392505050565b6000613cc182613b55565b9150819050919050565b6000613cd78285613bf0565b600282019150613ce78284613c16565b6020820191508190509392505050565b6000602082019050613d0c600083018461368d565b92915050565b6000608082019050613d27600083018761368d565b613d34602083018661368d565b613d416040830185613c07565b8181036060830152613d53818461370c565b905095945050505050565b6000604082019050613d73600083018561368d565b613d806020830184613c07565b9392505050565b6000602082019050613d9c600083018461369c565b92915050565b60006020820190508181036000830152613dbc818461370c565b905092915050565b60006020820190508181036000830152613dde8184613875565b905092915050565b60006020820190508181036000830152613dff816138df565b9050919050565b60006020820190508181036000830152613e1f81613902565b9050919050565b60006020820190508181036000830152613e3f81613925565b9050919050565b60006020820190508181036000830152613e5f81613948565b9050919050565b60006020820190508181036000830152613e7f8161396b565b9050919050565b60006020820190508181036000830152613e9f8161398e565b9050919050565b60006020820190508181036000830152613ebf816139b1565b9050919050565b60006020820190508181036000830152613edf816139d4565b9050919050565b60006020820190508181036000830152613eff816139f7565b9050919050565b60006020820190508181036000830152613f1f81613a1a565b9050919050565b60006020820190508181036000830152613f3f81613a3d565b9050919050565b60006020820190508181036000830152613f5f81613a60565b9050919050565b60006020820190508181036000830152613f7f81613a83565b9050919050565b60006020820190508181036000830152613f9f81613aa6565b9050919050565b60006020820190508181036000830152613fbf81613ac9565b9050919050565b60006020820190508181036000830152613fdf81613aec565b9050919050565b60006020820190508181036000830152613fff81613b0f565b9050919050565b6000602082019050818103600083015261401f81613b32565b9050919050565b6000602082019050818103600083015261403f81613b78565b9050919050565b6000602082019050818103600083015261405f81613b9b565b9050919050565b6000602082019050818103600083015261407f81613bbe565b9050919050565b600060208201905061409b6000830184613be1565b92915050565b600060a0820190506140b66000830188613be1565b6140c3602083018761368d565b81810360408301526140d5818661370c565b90506140e4606083018561369c565b81810360808301526140f6818461370c565b90509695505050505050565b60006080820190506141176000830188613be1565b8181036020830152614129818761370c565b90506141386040830186613c2d565b818103606083015261414b8184866136ba565b90509695505050505050565b600060808201905061416c6000830187613be1565b818103602083015261417e818661370c565b905061418d6040830185613c2d565b818103606083015261419f818461370c565b905095945050505050565b600060c0820190506141bf6000830189613be1565b81810360208301526141d18188613776565b905081810360408301526141e5818761370c565b90506141f4606083018661367e565b614201608083018561368d565b81810360a0830152614213818461370c565b9050979650505050505050565b60006020820190506142356000830184613c07565b92915050565b60006040820190506142506000830185613c07565b61425d60208301846136ab565b9392505050565b60006040820190506142796000830185613c07565b6142866020830184613c07565b9392505050565b60006040820190506142a26000830185613c3c565b6142af6020830184613c07565b9392505050565b60006060820190506142cb6000830186613c3c565b6142d86020830185613c07565b6142e56040830184613c07565b949350505050565b60006142f7614308565b90506143038282614594565b919050565b6000604051905090565b600067ffffffffffffffff82111561432d5761432c614717565b5b61433682614764565b9050602081019050919050565b60008190508160005260206000209050919050565b600081519050919050565b600081519050919050565b600082825260208201905092915050565b600081905092915050565b600082825260208201905092915050565b600081905092915050565b60006143b1826144f5565b91506143bc836144f5565b9250827fffffffffffffffffffffffffffffffffffffffffffffffffffffffffffffffff038211156143f1576143f061465b565b5b828201905092915050565b6000614407826144f5565b9150614412836144f5565b9250826144225761442161468a565b5b828204905092915050565b6000614438826144f5565b9150614443836144f5565b9250828210156144565761445561465b565b5b828203905092915050565b600061446c826144d5565b9050919050565b600061447e826144d5565b9050919050565b60008115159050919050565b6000819050919050565b60007fffffffff0000000000000000000000000000000000000000000000000000000082169050919050565b600061ffff82169050919050565b600073ffffffffffffffffffffffffffffffffffffffff82169050919050565b6000819050919050565b600067ffffffffffffffff82169050919050565b600060ff82169050919050565b82818337600083830152505050565b60005b8381101561454d578082015181840152602081019050614532565b8381111561455c576000848401525b50505050565b6000600282049050600182168061457a57607f821691505b6020821081141561458e5761458d6146b9565b5b50919050565b61459d82614764565b810181811067ffffffffffffffff821117156145bc576145bb614717565b5b80604052505050565b60006145d0826144f5565b91507fffffffffffffffffffffffffffffffffffffffffffffffffffffffffffffffff8214156146035761460261465b565b5b600182019050919050565b600061461982614775565b9050919050565b6000819050919050565b6000614635826144f5565b9150614640836144f5565b9250826146505761464f61468a565b5b828206905092915050565b7f4e487b7100000000000000000000000000000000000000000000000000000000600052601160045260246000fd5b7f4e487b7100000000000000000000000000000000000000000000000000000000600052601260045260246000fd5b7f4e487b7100000000000000000000000000000000000000000000000000000000600052602260045260246000fd5b7f4e487b7100000000000000000000000000000000000000000000000000000000600052603260045260246000fd5b7f4e487b7100000000000000000000000000000000000000000000000000000000600052604160045260246000fd5b600080fd5b600080fd5b600080fd5b600080fd5b600080fd5b600080fd5b6000601f19601f8301169050919050565b60008160f01b9050919050565b7f4552433732313a207472616e7366657220746f206e6f6e20455243373231526560008201527f63656976657220696d706c656d656e7465720000000000000000000000000000602082015250565b7f4f776e61626c653a206e6577206f776e657220697320746865207a65726f206160008201527f6464726573730000000000000000000000000000000000000000000000000000602082015250565b7f4552433732313a207472616e736665722066726f6d20696e636f72726563742060008201527f6f776e6572000000000000000000000000000000000000000000000000000000602082015250565b7f4552433732313a20746f6b656e20616c7265616479206d696e74656400000000600082015250565b7f4552433732313a207472616e7366657220746f20746865207a65726f2061646460008201527f7265737300000000000000000000000000000000000000000000000000000000602082015250565b7f4552433732313a20617070726f766520746f2063616c6c657200000000000000600082015250565b7f4c617965725a65726f3a20696e76616c6964207061796c6f6164000000000000600082015250565b7f4552433732313a206f70657261746f7220717565727920666f72206e6f6e657860008201527f697374656e7420746f6b656e0000000000000000000000000000000000000000602082015250565b7f4552433732313a20617070726f76652063616c6c6572206973206e6f74206f7760008201527f6e6572206e6f7220617070726f76656420666f7220616c6c0000000000000000602082015250565b7f4552433732313a2062616c616e636520717565727920666f7220746865207a6560008201527f726f206164647265737300000000000000000000000000000000000000000000602082015250565b7f4552433732313a206f776e657220717565727920666f72206e6f6e657869737460008201527f656e7420746f6b656e0000000000000000000000000000000000000000000000602082015250565b7f4e6f6e626c6f636b696e6752656365697665723a2063616c6c6572206d75737460008201527f206265204272696467652e000000000000000000000000000000000000000000602082015250565b7f4552433732313a206d696e7420746f20746865207a65726f2061646472657373600082015250565b7f4552433732313a20617070726f76656420717565727920666f72206e6f6e657860008201527f697374656e7420746f6b656e0000000000000000000000000000000000000000602082015250565b7f4f776e61626c653a2063616c6c6572206973206e6f7420746865206f776e6572600082015250565b7f4e6f6e626c6f636b696e6752656365697665723a20696e76616c696420736f7560008201527f7263652073656e64696e6720636f6e7472616374000000000000000000000000602082015250565b7f4552433732314d657461646174613a2055524920717565727920666f72206e6f60008201527f6e6578697374656e7420746f6b656e0000000000000000000000000000000000602082015250565b7f4552433732313a20617070726f76616c20746f2063757272656e74206f776e6560008201527f7200000000000000000000000000000000000000000000000000000000000000602082015250565b50565b7f4552433732313a207472616e736665722063616c6c6572206973206e6f74206f60008201527f776e6572206e6f7220617070726f766564000000000000000000000000000000602082015250565b7f4e6f6e626c6f636b696e6752656365697665723a206e6f2073746f726564206d60008201527f6573736167650000000000000000000000000000000000000000000000000000602082015250565b7f47473a204661696c656420746f20776974686472617720457468657200000000600082015250565b614d2581614461565b8114614d3057600080fd5b50565b614d3c81614473565b8114614d4757600080fd5b50565b614d5381614485565b8114614d5e57600080fd5b50565b614d6a8161449b565b8114614d7557600080fd5b50565b614d81816144c7565b8114614d8c57600080fd5b50565b614d98816144f5565b8114614da357600080fd5b50565b614daf816144ff565b8114614dba57600080fd5b50565b614dc681614513565b8114614dd157600080fd5b5056fea26469706673582212209f93d1b1d260112dfb63ff172be14c69fd239f563f034667538e86f396dcd35364736f6c63430008070033",
  "devdoc": {
    "kind": "dev",
    "methods": {
      "approve(address,uint256)": {
        "details": "See {IERC721-approve}."
      },
      "balanceOf(address)": {
        "details": "See {IERC721-balanceOf}."
      },
      "getApproved(uint256)": {
        "details": "See {IERC721-getApproved}."
      },
      "isApprovedForAll(address,address)": {
        "details": "See {IERC721-isApprovedForAll}."
      },
      "name()": {
        "details": "See {IERC721Metadata-name}."
      },
      "owner()": {
        "details": "Returns the address of the current owner."
      },
      "ownerOf(uint256)": {
        "details": "See {IERC721-ownerOf}."
      },
      "renounceOwnership()": {
        "details": "Leaves the contract without owner. It will not be possible to call `onlyOwner` functions anymore. Can only be called by the current owner. NOTE: Renouncing ownership will leave the contract without an owner, thereby removing any functionality that is only available to the owner."
      },
      "safeTransferFrom(address,address,uint256)": {
        "details": "See {IERC721-safeTransferFrom}."
      },
      "safeTransferFrom(address,address,uint256,bytes)": {
        "details": "See {IERC721-safeTransferFrom}."
      },
      "setApprovalForAll(address,bool)": {
        "details": "See {IERC721-setApprovalForAll}."
      },
      "supportsInterface(bytes4)": {
        "details": "See {IERC165-supportsInterface}."
      },
      "symbol()": {
        "details": "See {IERC721Metadata-symbol}."
      },
      "tokenURI(uint256)": {
        "details": "See {IERC721Metadata-tokenURI}."
      },
      "transferFrom(address,address,uint256)": {
        "details": "See {IERC721-transferFrom}."
      },
      "transferOwnership(address)": {
        "details": "Transfers ownership of the contract to a new account (`newOwner`). Can only be called by the current owner."
      }
    },
    "version": 1
  },
  "userdoc": {
    "kind": "user",
    "methods": {},
    "version": 1
  },
  "storageLayout": {
    "storage": [
      {
        "astId": 7,
        "contract": "contracts/OmniTestNFT.sol:OmniTestNFT",
        "label": "_owner",
        "offset": 0,
        "slot": "0",
        "type": "t_address"
      },
      {
        "astId": 130,
        "contract": "contracts/OmniTestNFT.sol:OmniTestNFT",
        "label": "_name",
        "offset": 0,
        "slot": "1",
        "type": "t_string_storage"
      },
      {
        "astId": 132,
        "contract": "contracts/OmniTestNFT.sol:OmniTestNFT",
        "label": "_symbol",
        "offset": 0,
        "slot": "2",
        "type": "t_string_storage"
      },
      {
        "astId": 136,
        "contract": "contracts/OmniTestNFT.sol:OmniTestNFT",
        "label": "_owners",
        "offset": 0,
        "slot": "3",
        "type": "t_mapping(t_uint256,t_address)"
      },
      {
        "astId": 140,
        "contract": "contracts/OmniTestNFT.sol:OmniTestNFT",
        "label": "_balances",
        "offset": 0,
        "slot": "4",
        "type": "t_mapping(t_address,t_uint256)"
      },
      {
        "astId": 144,
        "contract": "contracts/OmniTestNFT.sol:OmniTestNFT",
        "label": "_tokenApprovals",
        "offset": 0,
        "slot": "5",
        "type": "t_mapping(t_uint256,t_address)"
      },
      {
        "astId": 150,
        "contract": "contracts/OmniTestNFT.sol:OmniTestNFT",
        "label": "_operatorApprovals",
        "offset": 0,
        "slot": "6",
        "type": "t_mapping(t_address,t_mapping(t_address,t_bool))"
      },
      {
        "astId": 1699,
        "contract": "contracts/OmniTestNFT.sol:OmniTestNFT",
        "label": "endpoint",
        "offset": 0,
        "slot": "7",
        "type": "t_contract(ILayerZeroEndpoint)2506"
      },
      {
        "astId": 1713,
        "contract": "contracts/OmniTestNFT.sol:OmniTestNFT",
        "label": "failedMessages",
        "offset": 0,
        "slot": "8",
        "type": "t_mapping(t_uint16,t_mapping(t_bytes_memory_ptr,t_mapping(t_uint256,t_struct(FailedMessages)1704_storage)))"
      },
      {
        "astId": 1717,
        "contract": "contracts/OmniTestNFT.sol:OmniTestNFT",
        "label": "trustedRemoteLookup",
        "offset": 0,
        "slot": "9",
        "type": "t_mapping(t_uint16,t_bytes_storage)"
      },
      {
        "astId": 1982,
        "contract": "contracts/OmniTestNFT.sol:OmniTestNFT",
        "label": "_owner",
        "offset": 0,
        "slot": "10",
        "type": "t_address"
      },
      {
        "astId": 1984,
        "contract": "contracts/OmniTestNFT.sol:OmniTestNFT",
        "label": "baseURI",
        "offset": 0,
        "slot": "11",
        "type": "t_string_storage"
      },
      {
        "astId": 1986,
        "contract": "contracts/OmniTestNFT.sol:OmniTestNFT",
        "label": "nextTokenId",
        "offset": 0,
        "slot": "12",
        "type": "t_uint256"
      },
      {
        "astId": 1991,
        "contract": "contracts/OmniTestNFT.sol:OmniTestNFT",
        "label": "mintLimitPerTxn",
        "offset": 0,
        "slot": "13",
        "type": "t_uint256"
      },
      {
        "astId": 1994,
        "contract": "contracts/OmniTestNFT.sol:OmniTestNFT",
        "label": "gasForDestinationLzReceive",
        "offset": 0,
        "slot": "14",
        "type": "t_uint256"
      },
      {
        "astId": 1997,
        "contract": "contracts/OmniTestNFT.sol:OmniTestNFT",
        "label": "revealed",
        "offset": 0,
        "slot": "15",
        "type": "t_bool"
      },
      {
        "astId": 1999,
        "contract": "contracts/OmniTestNFT.sol:OmniTestNFT",
        "label": "revealUrl",
        "offset": 0,
        "slot": "16",
        "type": "t_string_storage"
      }
    ],
    "types": {
      "t_address": {
        "encoding": "inplace",
        "label": "address",
        "numberOfBytes": "20"
      },
      "t_bool": {
        "encoding": "inplace",
        "label": "bool",
        "numberOfBytes": "1"
      },
      "t_bytes32": {
        "encoding": "inplace",
        "label": "bytes32",
        "numberOfBytes": "32"
      },
      "t_bytes_memory_ptr": {
        "encoding": "bytes",
        "label": "bytes",
        "numberOfBytes": "32"
      },
      "t_bytes_storage": {
        "encoding": "bytes",
        "label": "bytes",
        "numberOfBytes": "32"
      },
      "t_contract(ILayerZeroEndpoint)2506": {
        "encoding": "inplace",
        "label": "contract ILayerZeroEndpoint",
        "numberOfBytes": "20"
      },
      "t_mapping(t_address,t_bool)": {
        "encoding": "mapping",
        "key": "t_address",
        "label": "mapping(address => bool)",
        "numberOfBytes": "32",
        "value": "t_bool"
      },
      "t_mapping(t_address,t_mapping(t_address,t_bool))": {
        "encoding": "mapping",
        "key": "t_address",
        "label": "mapping(address => mapping(address => bool))",
        "numberOfBytes": "32",
        "value": "t_mapping(t_address,t_bool)"
      },
      "t_mapping(t_address,t_uint256)": {
        "encoding": "mapping",
        "key": "t_address",
        "label": "mapping(address => uint256)",
        "numberOfBytes": "32",
        "value": "t_uint256"
      },
      "t_mapping(t_bytes_memory_ptr,t_mapping(t_uint256,t_struct(FailedMessages)1704_storage))": {
        "encoding": "mapping",
        "key": "t_bytes_memory_ptr",
        "label": "mapping(bytes => mapping(uint256 => struct NonblockingReceiver.FailedMessages))",
        "numberOfBytes": "32",
        "value": "t_mapping(t_uint256,t_struct(FailedMessages)1704_storage)"
      },
      "t_mapping(t_uint16,t_bytes_storage)": {
        "encoding": "mapping",
        "key": "t_uint16",
        "label": "mapping(uint16 => bytes)",
        "numberOfBytes": "32",
        "value": "t_bytes_storage"
      },
      "t_mapping(t_uint16,t_mapping(t_bytes_memory_ptr,t_mapping(t_uint256,t_struct(FailedMessages)1704_storage)))": {
        "encoding": "mapping",
        "key": "t_uint16",
        "label": "mapping(uint16 => mapping(bytes => mapping(uint256 => struct NonblockingReceiver.FailedMessages)))",
        "numberOfBytes": "32",
        "value": "t_mapping(t_bytes_memory_ptr,t_mapping(t_uint256,t_struct(FailedMessages)1704_storage))"
      },
      "t_mapping(t_uint256,t_address)": {
        "encoding": "mapping",
        "key": "t_uint256",
        "label": "mapping(uint256 => address)",
        "numberOfBytes": "32",
        "value": "t_address"
      },
      "t_mapping(t_uint256,t_struct(FailedMessages)1704_storage)": {
        "encoding": "mapping",
        "key": "t_uint256",
        "label": "mapping(uint256 => struct NonblockingReceiver.FailedMessages)",
        "numberOfBytes": "32",
        "value": "t_struct(FailedMessages)1704_storage"
      },
      "t_string_storage": {
        "encoding": "bytes",
        "label": "string",
        "numberOfBytes": "32"
      },
      "t_struct(FailedMessages)1704_storage": {
        "encoding": "inplace",
        "label": "struct NonblockingReceiver.FailedMessages",
        "members": [
          {
            "astId": 1701,
            "contract": "contracts/OmniTestNFT.sol:OmniTestNFT",
            "label": "payloadLength",
            "offset": 0,
            "slot": "0",
            "type": "t_uint256"
          },
          {
            "astId": 1703,
            "contract": "contracts/OmniTestNFT.sol:OmniTestNFT",
            "label": "payloadHash",
            "offset": 0,
            "slot": "1",
            "type": "t_bytes32"
          }
        ],
        "numberOfBytes": "64"
      },
      "t_uint16": {
        "encoding": "inplace",
        "label": "uint16",
        "numberOfBytes": "2"
      },
      "t_uint256": {
        "encoding": "inplace",
        "label": "uint256",
        "numberOfBytes": "32"
      }
    }
  }
}