{
  "address": "0x9F32891B76fda5aBffC7c86f10E013faC6d89A07",
  "abi": [
    {
      "inputs": [
        {
          "internalType": "string",
          "name": "baseURI_",
          "type": "string"
        },
        {
          "internalType": "address",
          "name": "_layerZeroEndpoint",
          "type": "address"
        },
        {
          "internalType": "uint256",
          "name": "_nextTokenId",
          "type": "uint256"
        },
        {
          "internalType": "uint256",
          "name": "_maxMint",
          "type": "uint256"
        }
      ],
      "stateMutability": "nonpayable",
      "type": "constructor"
    },
    {
      "anonymous": false,
      "inputs": [
        {
          "indexed": true,
          "internalType": "address",
          "name": "owner",
          "type": "address"
        },
        {
          "indexed": true,
          "internalType": "address",
          "name": "approved",
          "type": "address"
        },
        {
          "indexed": true,
          "internalType": "uint256",
          "name": "tokenId",
          "type": "uint256"
        }
      ],
      "name": "Approval",
      "type": "event"
    },
    {
      "anonymous": false,
      "inputs": [
        {
          "indexed": true,
          "internalType": "address",
          "name": "owner",
          "type": "address"
        },
        {
          "indexed": true,
          "internalType": "address",
          "name": "operator",
          "type": "address"
        },
        {
          "indexed": false,
          "internalType": "bool",
          "name": "approved",
          "type": "bool"
        }
      ],
      "name": "ApprovalForAll",
      "type": "event"
    },
    {
      "anonymous": false,
      "inputs": [
        {
          "indexed": false,
          "internalType": "uint16",
          "name": "_srcChainId",
          "type": "uint16"
        },
        {
          "indexed": false,
          "internalType": "bytes",
          "name": "_srcAddress",
          "type": "bytes"
        },
        {
          "indexed": false,
          "internalType": "uint64",
          "name": "_nonce",
          "type": "uint64"
        },
        {
          "indexed": false,
          "internalType": "bytes",
          "name": "_payload",
          "type": "bytes"
        }
      ],
      "name": "MessageFailed",
      "type": "event"
    },
    {
      "anonymous": false,
      "inputs": [
        {
          "indexed": true,
          "internalType": "address",
          "name": "previousOwner",
          "type": "address"
        },
        {
          "indexed": true,
          "internalType": "address",
          "name": "newOwner",
          "type": "address"
        }
      ],
      "name": "OwnershipTransferred",
      "type": "event"
    },
    {
      "anonymous": false,
      "inputs": [
        {
          "indexed": true,
          "internalType": "address",
          "name": "from",
          "type": "address"
        },
        {
          "indexed": true,
          "internalType": "address",
          "name": "to",
          "type": "address"
        },
        {
          "indexed": true,
          "internalType": "uint256",
          "name": "tokenId",
          "type": "uint256"
        }
      ],
      "name": "Transfer",
      "type": "event"
    },
    {
      "inputs": [],
      "name": "MAX_MINT",
      "outputs": [
        {
          "internalType": "uint256",
          "name": "",
          "type": "uint256"
        }
      ],
      "stateMutability": "view",
      "type": "function"
    },
    {
      "inputs": [],
      "name": "_owner",
      "outputs": [
        {
          "internalType": "address",
          "name": "",
          "type": "address"
        }
      ],
      "stateMutability": "view",
      "type": "function"
    },
    {
      "inputs": [
        {
          "internalType": "address",
          "name": "to",
          "type": "address"
        },
        {
          "internalType": "uint256",
          "name": "tokenId",
          "type": "uint256"
        }
      ],
      "name": "approve",
      "outputs": [],
      "stateMutability": "nonpayable",
      "type": "function"
    },
    {
      "inputs": [
        {
          "internalType": "address",
          "name": "owner",
          "type": "address"
        }
      ],
      "name": "balanceOf",
      "outputs": [
        {
          "internalType": "uint256",
          "name": "",
          "type": "uint256"
        }
      ],
      "stateMutability": "view",
      "type": "function"
    },
    {
      "inputs": [],
      "name": "baseExtension",
      "outputs": [
        {
          "internalType": "string",
          "name": "",
          "type": "string"
        }
      ],
      "stateMutability": "view",
      "type": "function"
    },
    {
      "inputs": [],
      "name": "donate",
      "outputs": [],
      "stateMutability": "payable",
      "type": "function"
    },
    {
      "inputs": [
        {
          "internalType": "uint16",
          "name": "",
          "type": "uint16"
        },
        {
          "internalType": "bytes",
          "name": "",
          "type": "bytes"
        },
        {
          "internalType": "uint256",
          "name": "",
          "type": "uint256"
        }
      ],
      "name": "failedMessages",
      "outputs": [
        {
          "internalType": "uint256",
          "name": "payloadLength",
          "type": "uint256"
        },
        {
          "internalType": "bytes32",
          "name": "payloadHash",
          "type": "bytes32"
        }
      ],
      "stateMutability": "view",
      "type": "function"
    },
    {
      "inputs": [
        {
          "internalType": "uint256",
          "name": "tokenId",
          "type": "uint256"
        }
      ],
      "name": "getApproved",
      "outputs": [
        {
          "internalType": "address",
          "name": "",
          "type": "address"
        }
      ],
      "stateMutability": "view",
      "type": "function"
    },
    {
      "inputs": [
        {
          "internalType": "address",
          "name": "owner",
          "type": "address"
        },
        {
          "internalType": "address",
          "name": "operator",
          "type": "address"
        }
      ],
      "name": "isApprovedForAll",
      "outputs": [
        {
          "internalType": "bool",
          "name": "",
          "type": "bool"
        }
      ],
      "stateMutability": "view",
      "type": "function"
    },
    {
      "inputs": [
        {
          "internalType": "uint16",
          "name": "_srcChainId",
          "type": "uint16"
        },
        {
          "internalType": "bytes",
          "name": "_srcAddress",
          "type": "bytes"
        },
        {
          "internalType": "uint64",
          "name": "_nonce",
          "type": "uint64"
        },
        {
          "internalType": "bytes",
          "name": "_payload",
          "type": "bytes"
        }
      ],
      "name": "lzReceive",
      "outputs": [],
      "stateMutability": "nonpayable",
      "type": "function"
    },
    {
      "inputs": [
        {
          "internalType": "uint8",
          "name": "numTokens",
          "type": "uint8"
        }
      ],
      "name": "mint",
      "outputs": [],
      "stateMutability": "payable",
      "type": "function"
    },
    {
      "inputs": [],
      "name": "name",
      "outputs": [
        {
          "internalType": "string",
          "name": "",
          "type": "string"
        }
      ],
      "stateMutability": "view",
      "type": "function"
    },
    {
      "inputs": [],
      "name": "nextTokenId",
      "outputs": [
        {
          "internalType": "uint256",
          "name": "",
          "type": "uint256"
        }
      ],
      "stateMutability": "view",
      "type": "function"
    },
    {
      "inputs": [
        {
          "internalType": "uint16",
          "name": "_srcChainId",
          "type": "uint16"
        },
        {
          "internalType": "bytes",
          "name": "_srcAddress",
          "type": "bytes"
        },
        {
          "internalType": "uint64",
          "name": "_nonce",
          "type": "uint64"
        },
        {
          "internalType": "bytes",
          "name": "_payload",
          "type": "bytes"
        }
      ],
      "name": "onLzReceive",
      "outputs": [],
      "stateMutability": "nonpayable",
      "type": "function"
    },
    {
      "inputs": [],
      "name": "owner",
      "outputs": [
        {
          "internalType": "address",
          "name": "",
          "type": "address"
        }
      ],
      "stateMutability": "view",
      "type": "function"
    },
    {
      "inputs": [
        {
          "internalType": "uint256",
          "name": "tokenId",
          "type": "uint256"
        }
      ],
      "name": "ownerOf",
      "outputs": [
        {
          "internalType": "address",
          "name": "",
          "type": "address"
        }
      ],
      "stateMutability": "view",
      "type": "function"
    },
    {
      "inputs": [],
      "name": "renounceOwnership",
      "outputs": [],
      "stateMutability": "nonpayable",
      "type": "function"
    },
    {
      "inputs": [
        {
          "internalType": "uint16",
          "name": "_srcChainId",
          "type": "uint16"
        },
        {
          "internalType": "bytes",
          "name": "_srcAddress",
          "type": "bytes"
        },
        {
          "internalType": "uint64",
          "name": "_nonce",
          "type": "uint64"
        },
        {
          "internalType": "bytes",
          "name": "_payload",
          "type": "bytes"
        }
      ],
      "name": "retryMessage",
      "outputs": [],
      "stateMutability": "payable",
      "type": "function"
    },
    {
      "inputs": [
        {
          "internalType": "address",
          "name": "from",
          "type": "address"
        },
        {
          "internalType": "address",
          "name": "to",
          "type": "address"
        },
        {
          "internalType": "uint256",
          "name": "tokenId",
          "type": "uint256"
        }
      ],
      "name": "safeTransferFrom",
      "outputs": [],
      "stateMutability": "nonpayable",
      "type": "function"
    },
    {
      "inputs": [
        {
          "internalType": "address",
          "name": "from",
          "type": "address"
        },
        {
          "internalType": "address",
          "name": "to",
          "type": "address"
        },
        {
          "internalType": "uint256",
          "name": "tokenId",
          "type": "uint256"
        },
        {
          "internalType": "bytes",
          "name": "_data",
          "type": "bytes"
        }
      ],
      "name": "safeTransferFrom",
      "outputs": [],
      "stateMutability": "nonpayable",
      "type": "function"
    },
    {
      "inputs": [
        {
          "internalType": "address",
          "name": "operator",
          "type": "address"
        },
        {
          "internalType": "bool",
          "name": "approved",
          "type": "bool"
        }
      ],
      "name": "setApprovalForAll",
      "outputs": [],
      "stateMutability": "nonpayable",
      "type": "function"
    },
    {
      "inputs": [
        {
          "internalType": "string",
          "name": "URI",
          "type": "string"
        }
      ],
      "name": "setBaseURI",
      "outputs": [],
      "stateMutability": "nonpayable",
      "type": "function"
    },
    {
      "inputs": [
        {
          "internalType": "uint256",
          "name": "newVal",
          "type": "uint256"
        }
      ],
      "name": "setGasForDestinationLzReceive",
      "outputs": [],
      "stateMutability": "nonpayable",
      "type": "function"
    },
    {
      "inputs": [
        {
          "internalType": "uint16",
          "name": "_chainId",
          "type": "uint16"
        },
        {
          "internalType": "bytes",
          "name": "_trustedRemote",
          "type": "bytes"
        }
      ],
      "name": "setTrustedRemote",
      "outputs": [],
      "stateMutability": "nonpayable",
      "type": "function"
    },
    {
      "inputs": [
        {
          "internalType": "bytes4",
          "name": "interfaceId",
          "type": "bytes4"
        }
      ],
      "name": "supportsInterface",
      "outputs": [
        {
          "internalType": "bool",
          "name": "",
          "type": "bool"
        }
      ],
      "stateMutability": "view",
      "type": "function"
    },
    {
      "inputs": [],
      "name": "symbol",
      "outputs": [
        {
          "internalType": "string",
          "name": "",
          "type": "string"
        }
      ],
      "stateMutability": "view",
      "type": "function"
    },
    {
      "inputs": [
        {
          "internalType": "uint256",
          "name": "tokenId",
          "type": "uint256"
        }
      ],
      "name": "tokenURI",
      "outputs": [
        {
          "internalType": "string",
          "name": "",
          "type": "string"
        }
      ],
      "stateMutability": "view",
      "type": "function"
    },
    {
      "inputs": [
        {
          "internalType": "address",
          "name": "from",
          "type": "address"
        },
        {
          "internalType": "address",
          "name": "to",
          "type": "address"
        },
        {
          "internalType": "uint256",
          "name": "tokenId",
          "type": "uint256"
        }
      ],
      "name": "transferFrom",
      "outputs": [],
      "stateMutability": "nonpayable",
      "type": "function"
    },
    {
      "inputs": [
        {
          "internalType": "address",
          "name": "newOwner",
          "type": "address"
        }
      ],
      "name": "transferOwnership",
      "outputs": [],
      "stateMutability": "nonpayable",
      "type": "function"
    },
    {
      "inputs": [
        {
          "internalType": "uint16",
          "name": "_chainId",
          "type": "uint16"
        },
        {
          "internalType": "uint256",
          "name": "tokenId",
          "type": "uint256"
        }
      ],
      "name": "traverseChains",
      "outputs": [],
      "stateMutability": "payable",
      "type": "function"
    },
    {
      "inputs": [
        {
          "internalType": "uint16",
          "name": "",
          "type": "uint16"
        }
      ],
      "name": "trustedRemoteLookup",
      "outputs": [
        {
          "internalType": "bytes",
          "name": "",
          "type": "bytes"
        }
      ],
      "stateMutability": "view",
      "type": "function"
    },
    {
      "inputs": [
        {
          "internalType": "uint256",
          "name": "amt",
          "type": "uint256"
        }
      ],
      "name": "withdraw",
      "outputs": [],
      "stateMutability": "nonpayable",
      "type": "function"
    }
  ],
  "transactionHash": "0xf602dcee22767eb88125b55a848e2520b2fc72dc45f4f6ab727fd80aa8b641d2",
  "args": [
    "ipfs://QmQkq89zh1HvZBFYiysdD9UNYuy1K53suAcsqdHktNA8MW/",
    "0x79a63d6d8BBD5c6dfc774dA79bCcD948EAcb53FA",
    0,
    10
  ],
  "numDeployments": 1,
  "solcInputHash": "7b4e3f029167f4f3c9d8d048f3701a70",
  "bytecode": "0x60806040526040518060400160405280600581526020017f2e6a736f6e0000000000000000000000000000000000000000000000000000008152506007908051906020019062000051929190620002cb565b5062055730600f553480156200006657600080fd5b506040516200552f3803806200552f83398181016040528101906200008c919062000427565b6040518060400160405280600b81526020017f4f6d6e69546573744e46540000000000000000000000000000000000000000008152506040518060400160405280600581526020017f4f544e4654000000000000000000000000000000000000000000000000000000815250620001186200010c620001ff60201b60201c565b6200020760201b60201c565b816001908051906020019062000130929190620002cb565b50806002908051906020019062000149929190620002cb565b50505033600b60006101000a81548173ffffffffffffffffffffffffffffffffffffffff021916908373ffffffffffffffffffffffffffffffffffffffff16021790555082600860006101000a81548173ffffffffffffffffffffffffffffffffffffffff021916908373ffffffffffffffffffffffffffffffffffffffff16021790555083600c9080519060200190620001e6929190620002cb565b5081600d8190555080600e8190555050505050620006ae565b600033905090565b60008060009054906101000a900473ffffffffffffffffffffffffffffffffffffffff169050816000806101000a81548173ffffffffffffffffffffffffffffffffffffffff021916908373ffffffffffffffffffffffffffffffffffffffff1602179055508173ffffffffffffffffffffffffffffffffffffffff168173ffffffffffffffffffffffffffffffffffffffff167f8be0079c531659141344cd1fd0a4f28419497f9722a3daafe3b4186f6b6457e060405160405180910390a35050565b828054620002d9906200058b565b90600052602060002090601f016020900481019282620002fd576000855562000349565b82601f106200031857805160ff191683800117855562000349565b8280016001018555821562000349579182015b82811115620003485782518255916020019190600101906200032b565b5b5090506200035891906200035c565b5090565b5b80821115620003775760008160009055506001016200035d565b5090565b6000620003926200038c84620004e1565b620004b8565b905082815260208101848484011115620003b157620003b06200065a565b5b620003be84828562000555565b509392505050565b600081519050620003d7816200067a565b92915050565b600082601f830112620003f557620003f462000655565b5b8151620004078482602086016200037b565b91505092915050565b600081519050620004218162000694565b92915050565b6000806000806080858703121562000444576200044362000664565b5b600085015167ffffffffffffffff8111156200046557620004646200065f565b5b6200047387828801620003dd565b94505060206200048687828801620003c6565b9350506040620004998782880162000410565b9250506060620004ac8782880162000410565b91505092959194509250565b6000620004c4620004d7565b9050620004d28282620005c1565b919050565b6000604051905090565b600067ffffffffffffffff821115620004ff57620004fe62000626565b5b6200050a8262000669565b9050602081019050919050565b600062000524826200052b565b9050919050565b600073ffffffffffffffffffffffffffffffffffffffff82169050919050565b6000819050919050565b60005b838110156200057557808201518184015260208101905062000558565b8381111562000585576000848401525b50505050565b60006002820490506001821680620005a457607f821691505b60208210811415620005bb57620005ba620005f7565b5b50919050565b620005cc8262000669565b810181811067ffffffffffffffff82111715620005ee57620005ed62000626565b5b80604052505050565b7f4e487b7100000000000000000000000000000000000000000000000000000000600052602260045260246000fd5b7f4e487b7100000000000000000000000000000000000000000000000000000000600052604160045260246000fd5b600080fd5b600080fd5b600080fd5b600080fd5b6000601f19601f8301169050919050565b620006858162000517565b81146200069157600080fd5b50565b6200069f816200054b565b8114620006ab57600080fd5b50565b614e7180620006be6000396000f3fe6080604052600436106101e25760003560e01c80638da5cb5b11610102578063c87b56dd11610095578063eb8d72b711610064578063eb8d72b7146106d7578063ed88c68e14610700578063f0292a031461070a578063f2fde38b14610735576101e2565b8063c87b56dd14610625578063cf89fa0314610662578063d1deba1f1461067e578063e985e9c51461069a576101e2565b8063a22cb465116100d1578063a22cb4651461057d578063b2bdfa7b146105a6578063b88d4fde146105d1578063c6682862146105fa576101e2565b80638da5cb5b146104c05780638ee74912146104eb578063943fb8721461052957806395d89b4114610552576101e2565b806342842e0e1161017a57806370a082311161014957806370a0823114610404578063715018a6146104415780637533d7881461045857806375794a3c14610495576101e2565b806342842e0e1461035957806355f804b3146103825780636352211e146103ab5780636ecd2306146103e8576101e2565b8063095ea7b3116101b6578063095ea7b3146102b55780631c37a822146102de57806323b872dd146103075780632e1a7d4d14610330576101e2565b80621d3567146101e757806301ffc9a71461021057806306fdde031461024d578063081812fc14610278575b600080fd5b3480156101f357600080fd5b5061020e60048036038101906102099190613305565b61075e565b005b34801561021c57600080fd5b50610237600480360381019061023291906130c2565b6109a0565b6040516102449190613c90565b60405180910390f35b34801561025957600080fd5b50610262610a82565b60405161026f9190613ccd565b60405180910390f35b34801561028457600080fd5b5061029f600480360381019061029a91906133e4565b610b14565b6040516102ac9190613c00565b60405180910390f35b3480156102c157600080fd5b506102dc60048036038101906102d79190613082565b610b99565b005b3480156102ea57600080fd5b5061030560048036038101906103009190613305565b610cb1565b005b34801561031357600080fd5b5061032e60048036038101906103299190612f6c565b610d31565b005b34801561033c57600080fd5b50610357600480360381019061035291906133e4565b610d91565b005b34801561036557600080fd5b50610380600480360381019061037b9190612f6c565b610edf565b005b34801561038e57600080fd5b506103a960048036038101906103a4919061311c565b610eff565b005b3480156103b757600080fd5b506103d260048036038101906103cd91906133e4565b610f95565b6040516103df9190613c00565b60405180910390f35b61040260048036038101906103fd9190613451565b611047565b005b34801561041057600080fd5b5061042b60048036038101906104269190612ebf565b61112e565b604051610438919061418e565b60405180910390f35b34801561044d57600080fd5b506104566111e6565b005b34801561046457600080fd5b5061047f600480360381019061047a9190613165565b61126e565b60405161048c9190613cab565b60405180910390f35b3480156104a157600080fd5b506104aa61130e565b6040516104b7919061418e565b60405180910390f35b3480156104cc57600080fd5b506104d5611314565b6040516104e29190613c00565b60405180910390f35b3480156104f757600080fd5b50610512600480360381019061050d91906131f2565b61133d565b6040516105209291906141a9565b60405180910390f35b34801561053557600080fd5b50610550600480360381019061054b91906133e4565b611391565b005b34801561055e57600080fd5b50610567611417565b6040516105749190613ccd565b60405180910390f35b34801561058957600080fd5b506105a4600480360381019061059f9190613042565b6114a9565b005b3480156105b257600080fd5b506105bb6114bf565b6040516105c89190613c00565b60405180910390f35b3480156105dd57600080fd5b506105f860048036038101906105f39190612fbf565b6114e5565b005b34801561060657600080fd5b5061060f611547565b60405161061c9190613ccd565b60405180910390f35b34801561063157600080fd5b5061064c600480360381019061064791906133e4565b6115d5565b6040516106599190613ccd565b60405180910390f35b61067c600480360381019061067791906133a4565b61167f565b005b61069860048036038101906106939190613261565b611972565b005b3480156106a657600080fd5b506106c160048036038101906106bc9190612f2c565b611b12565b6040516106ce9190613c90565b60405180910390f35b3480156106e357600080fd5b506106fe60048036038101906106f99190613192565b611ba6565b005b610708611c52565b005b34801561071657600080fd5b5061071f611c54565b60405161072c919061418e565b60405180910390f35b34801561074157600080fd5b5061075c60048036038101906107579190612ebf565b611c5a565b005b600860009054906101000a900473ffffffffffffffffffffffffffffffffffffffff1673ffffffffffffffffffffffffffffffffffffffff163373ffffffffffffffffffffffffffffffffffffffff16146107b857600080fd5b600a60008561ffff1661ffff16815260200190815260200160002080546107de9061448d565b905083511480156108245750600a60008561ffff1661ffff1681526020019081526020016000206040516108129190613b77565b60405180910390208380519060200120145b610863576040517f08c379a000000000000000000000000000000000000000000000000000000000815260040161085a90613f0f565b60405180910390fd5b3073ffffffffffffffffffffffffffffffffffffffff16631c37a822858585856040518563ffffffff1660e01b81526004016108a294939291906140c5565b600060405180830381600087803b1580156108bc57600080fd5b505af19250505080156108cd575060015b610999576040518060400160405280825181526020018280519060200120815250600960008661ffff1661ffff168152602001908152602001600020846040516109179190613b60565b908152602001604051809103902060008467ffffffffffffffff16815260200190815260200160002060008201518160000155602082015181600101559050507fe6f254030bcb01ffd20558175c13fcaed6d1520be7becee4c961b65f79243b0d8484848460405161098c94939291906140c5565b60405180910390a161099a565b5b50505050565b60007f80ac58cd000000000000000000000000000000000000000000000000000000007bffffffffffffffffffffffffffffffffffffffffffffffffffffffff1916827bffffffffffffffffffffffffffffffffffffffffffffffffffffffff19161480610a6b57507f5b5e139f000000000000000000000000000000000000000000000000000000007bffffffffffffffffffffffffffffffffffffffffffffffffffffffff1916827bffffffffffffffffffffffffffffffffffffffffffffffffffffffff1916145b80610a7b5750610a7a82611d52565b5b9050919050565b606060018054610a919061448d565b80601f0160208091040260200160405190810160405280929190818152602001828054610abd9061448d565b8015610b0a5780601f10610adf57610100808354040283529160200191610b0a565b820191906000526020600020905b815481529060010190602001808311610aed57829003601f168201915b5050505050905090565b6000610b1f82611dbc565b610b5e576040517f08c379a0000000000000000000000000000000000000000000000000000000008152600401610b5590613ecf565b60405180910390fd5b6005600083815260200190815260200160002060009054906101000a900473ffffffffffffffffffffffffffffffffffffffff169050919050565b6000610ba482610f95565b90508073ffffffffffffffffffffffffffffffffffffffff168373ffffffffffffffffffffffffffffffffffffffff161415610c15576040517f08c379a0000000000000000000000000000000000000000000000000000000008152600401610c0c90613f6f565b60405180910390fd5b8073ffffffffffffffffffffffffffffffffffffffff16610c34611e28565b73ffffffffffffffffffffffffffffffffffffffff161480610c635750610c6281610c5d611e28565b611b12565b5b610ca2576040517f08c379a0000000000000000000000000000000000000000000000000000000008152600401610c9990613e0f565b60405180910390fd5b610cac8383611e30565b505050565b3073ffffffffffffffffffffffffffffffffffffffff163373ffffffffffffffffffffffffffffffffffffffff1614610d1f576040517f08c379a0000000000000000000000000000000000000000000000000000000008152600401610d1690613e6f565b60405180910390fd5b610d2b84848484611ee9565b50505050565b610d42610d3c611e28565b82611f16565b610d81576040517f08c379a0000000000000000000000000000000000000000000000000000000008152600401610d7890613f8f565b60405180910390fd5b610d8c838383611ff4565b505050565b610d99611e28565b73ffffffffffffffffffffffffffffffffffffffff16610db7611314565b73ffffffffffffffffffffffffffffffffffffffff1614610e0d576040517f08c379a0000000000000000000000000000000000000000000000000000000008152600401610e0490613eef565b60405180910390fd5b6000600b60009054906101000a900473ffffffffffffffffffffffffffffffffffffffff1673ffffffffffffffffffffffffffffffffffffffff1682604051610e5590613bbf565b60006040518083038185875af1925050503d8060008114610e92576040519150601f19603f3d011682016040523d82523d6000602084013e610e97565b606091505b5050905080610edb576040517f08c379a0000000000000000000000000000000000000000000000000000000008152600401610ed290613fcf565b60405180910390fd5b5050565b610efa838383604051806020016040528060008152506114e5565b505050565b610f07611e28565b73ffffffffffffffffffffffffffffffffffffffff16610f25611314565b73ffffffffffffffffffffffffffffffffffffffff1614610f7b576040517f08c379a0000000000000000000000000000000000000000000000000000000008152600401610f7290613eef565b60405180910390fd5b80600c9080519060200190610f91929190612b8e565b5050565b6000806003600084815260200190815260200160002060009054906101000a900473ffffffffffffffffffffffffffffffffffffffff169050600073ffffffffffffffffffffffffffffffffffffffff168173ffffffffffffffffffffffffffffffffffffffff16141561103e576040517f08c379a000000000000000000000000000000000000000000000000000000000815260040161103590613e4f565b60405180910390fd5b80915050919050565b60038160ff161061108d576040517f08c379a000000000000000000000000000000000000000000000000000000000815260040161108490613e8f565b60405180910390fd5b600e548160ff16600d546110a191906142d1565b11156110e2576040517f08c379a00000000000000000000000000000000000000000000000000000000081526004016110d990613fef565b60405180910390fd5b61110033600d600081546110f5906144f0565b919050819055612250565b60028160ff16141561112b5761112a33600d6000815461111f906144f0565b919050819055612250565b5b50565b60008073ffffffffffffffffffffffffffffffffffffffff168273ffffffffffffffffffffffffffffffffffffffff16141561119f576040517f08c379a000000000000000000000000000000000000000000000000000000000815260040161119690613e2f565b60405180910390fd5b600460008373ffffffffffffffffffffffffffffffffffffffff1673ffffffffffffffffffffffffffffffffffffffff168152602001908152602001600020549050919050565b6111ee611e28565b73ffffffffffffffffffffffffffffffffffffffff1661120c611314565b73ffffffffffffffffffffffffffffffffffffffff1614611262576040517f08c379a000000000000000000000000000000000000000000000000000000000815260040161125990613eef565b60405180910390fd5b61126c600061226e565b565b600a602052806000526040600020600091509050805461128d9061448d565b80601f01602080910402602001604051908101604052809291908181526020018280546112b99061448d565b80156113065780601f106112db57610100808354040283529160200191611306565b820191906000526020600020905b8154815290600101906020018083116112e957829003601f168201915b505050505081565b600d5481565b60008060009054906101000a900473ffffffffffffffffffffffffffffffffffffffff16905090565b60096020528260005260406000208280516020810182018051848252602083016020850120818352809550505050505060205280600052604060002060009250925050508060000154908060010154905082565b611399611e28565b73ffffffffffffffffffffffffffffffffffffffff166113b7611314565b73ffffffffffffffffffffffffffffffffffffffff161461140d576040517f08c379a000000000000000000000000000000000000000000000000000000000815260040161140490613eef565b60405180910390fd5b80600f8190555050565b6060600280546114269061448d565b80601f01602080910402602001604051908101604052809291908181526020018280546114529061448d565b801561149f5780601f106114745761010080835404028352916020019161149f565b820191906000526020600020905b81548152906001019060200180831161148257829003601f168201915b5050505050905090565b6114bb6114b4611e28565b8383612332565b5050565b600b60009054906101000a900473ffffffffffffffffffffffffffffffffffffffff1681565b6114f66114f0611e28565b83611f16565b611535576040517f08c379a000000000000000000000000000000000000000000000000000000000815260040161152c90613f8f565b60405180910390fd5b6115418484848461249f565b50505050565b600780546115549061448d565b80601f01602080910402602001604051908101604052809291908181526020018280546115809061448d565b80156115cd5780601f106115a2576101008083540402835291602001916115cd565b820191906000526020600020905b8154815290600101906020018083116115b057829003601f168201915b505050505081565b60606115e082611dbc565b61161f576040517f08c379a000000000000000000000000000000000000000000000000000000000815260040161161690613f4f565b60405180910390fd5b60006116296124fb565b905060008151116116495760405180602001604052806000815250611677565b806116538461258d565b600760405160200161166793929190613b8e565b6040516020818303038152906040525b915050919050565b61168881610f95565b73ffffffffffffffffffffffffffffffffffffffff163373ffffffffffffffffffffffffffffffffffffffff16146116f5576040517f08c379a00000000000000000000000000000000000000000000000000000000081526004016116ec90613dcf565b60405180910390fd5b6000600a60008461ffff1661ffff168152602001908152602001600020805461171d9061448d565b90501161175f576040517f08c379a000000000000000000000000000000000000000000000000000000000815260040161175690613d8f565b60405180910390fd5b611768816126ee565b6000338260405160200161177d929190613c67565b6040516020818303038152906040529050600060019050600081600f546040516020016117ab929190613bd4565b60405160208183030381529060405290506000600860009054906101000a900473ffffffffffffffffffffffffffffffffffffffff1673ffffffffffffffffffffffffffffffffffffffff166340a7bb108730876000876040518663ffffffff1660e01b815260040161182295949392919061400f565b604080518083038186803b15801561183957600080fd5b505afa15801561184d573d6000803e3d6000fd5b505050506040513d601f19601f820116820180604052508101906118719190613411565b509050803410156118b7576040517f08c379a00000000000000000000000000000000000000000000000000000000081526004016118ae90613cef565b60405180910390fd5b600860009054906101000a900473ffffffffffffffffffffffffffffffffffffffff1673ffffffffffffffffffffffffffffffffffffffff1663c58031003488600a60008b61ffff1661ffff16815260200190815260200160002088336000896040518863ffffffff1660e01b815260040161193896959493929190614118565b6000604051808303818588803b15801561195157600080fd5b505af1158015611965573d6000803e3d6000fd5b5050505050505050505050565b6000600960008761ffff1661ffff1681526020019081526020016000208560405161199d9190613b60565b908152602001604051809103902060008567ffffffffffffffff16815260200190815260200160002090506000801b81600101541415611a12576040517f08c379a0000000000000000000000000000000000000000000000000000000008152600401611a0990613faf565b60405180910390fd5b806000015483839050148015611a42575080600101548383604051611a38929190613b47565b6040518091039020145b611a81576040517f08c379a0000000000000000000000000000000000000000000000000000000008152600401611a7890613daf565b60405180910390fd5b600081600001819055506000801b81600101819055503073ffffffffffffffffffffffffffffffffffffffff16631c37a82287878787876040518663ffffffff1660e01b8152600401611ad8959493929190614070565b600060405180830381600087803b158015611af257600080fd5b505af1158015611b06573d6000803e3d6000fd5b50505050505050505050565b6000600660008473ffffffffffffffffffffffffffffffffffffffff1673ffffffffffffffffffffffffffffffffffffffff16815260200190815260200160002060008373ffffffffffffffffffffffffffffffffffffffff1673ffffffffffffffffffffffffffffffffffffffff16815260200190815260200160002060009054906101000a900460ff16905092915050565b611bae611e28565b73ffffffffffffffffffffffffffffffffffffffff16611bcc611314565b73ffffffffffffffffffffffffffffffffffffffff1614611c22576040517f08c379a0000000000000000000000000000000000000000000000000000000008152600401611c1990613eef565b60405180910390fd5b8181600a60008661ffff1661ffff1681526020019081526020016000209190611c4c929190612c14565b50505050565b565b600e5481565b611c62611e28565b73ffffffffffffffffffffffffffffffffffffffff16611c80611314565b73ffffffffffffffffffffffffffffffffffffffff1614611cd6576040517f08c379a0000000000000000000000000000000000000000000000000000000008152600401611ccd90613eef565b60405180910390fd5b600073ffffffffffffffffffffffffffffffffffffffff168173ffffffffffffffffffffffffffffffffffffffff161415611d46576040517f08c379a0000000000000000000000000000000000000000000000000000000008152600401611d3d90613d2f565b60405180910390fd5b611d4f8161226e565b50565b60007f01ffc9a7000000000000000000000000000000000000000000000000000000007bffffffffffffffffffffffffffffffffffffffffffffffffffffffff1916827bffffffffffffffffffffffffffffffffffffffffffffffffffffffff1916149050919050565b60008073ffffffffffffffffffffffffffffffffffffffff166003600084815260200190815260200160002060009054906101000a900473ffffffffffffffffffffffffffffffffffffffff1673ffffffffffffffffffffffffffffffffffffffff1614159050919050565b600033905090565b816005600083815260200190815260200160002060006101000a81548173ffffffffffffffffffffffffffffffffffffffff021916908373ffffffffffffffffffffffffffffffffffffffff160217905550808273ffffffffffffffffffffffffffffffffffffffff16611ea383610f95565b73ffffffffffffffffffffffffffffffffffffffff167f8c5be1e5ebec7d5bd14f71427d1e84f3dd0314c0f7b2291e5b200ac8c7c3b92560405160405180910390a45050565b60008082806020019051810190611f009190612eec565b91509150611f0e8282612250565b505050505050565b6000611f2182611dbc565b611f60576040517f08c379a0000000000000000000000000000000000000000000000000000000008152600401611f5790613def565b60405180910390fd5b6000611f6b83610f95565b90508073ffffffffffffffffffffffffffffffffffffffff168473ffffffffffffffffffffffffffffffffffffffff161480611fda57508373ffffffffffffffffffffffffffffffffffffffff16611fc284610b14565b73ffffffffffffffffffffffffffffffffffffffff16145b80611feb5750611fea8185611b12565b5b91505092915050565b8273ffffffffffffffffffffffffffffffffffffffff1661201482610f95565b73ffffffffffffffffffffffffffffffffffffffff161461206a576040517f08c379a000000000000000000000000000000000000000000000000000000000815260040161206190613f2f565b60405180910390fd5b600073ffffffffffffffffffffffffffffffffffffffff168273ffffffffffffffffffffffffffffffffffffffff1614156120da576040517f08c379a00000000000000000000000000000000000000000000000000000000081526004016120d190613d4f565b60405180910390fd5b6120e58383836127ff565b6120f0600082611e30565b6001600460008573ffffffffffffffffffffffffffffffffffffffff1673ffffffffffffffffffffffffffffffffffffffff16815260200190815260200160002060008282546121409190614358565b925050819055506001600460008473ffffffffffffffffffffffffffffffffffffffff1673ffffffffffffffffffffffffffffffffffffffff168152602001908152602001600020600082825461219791906142d1565b92505081905550816003600083815260200190815260200160002060006101000a81548173ffffffffffffffffffffffffffffffffffffffff021916908373ffffffffffffffffffffffffffffffffffffffff160217905550808273ffffffffffffffffffffffffffffffffffffffff168473ffffffffffffffffffffffffffffffffffffffff167fddf252ad1be2c89b69c2b068fc378daa952ba7f163c4a11628f55a4df523b3ef60405160405180910390a4505050565b61226a828260405180602001604052806000815250612804565b5050565b60008060009054906101000a900473ffffffffffffffffffffffffffffffffffffffff169050816000806101000a81548173ffffffffffffffffffffffffffffffffffffffff021916908373ffffffffffffffffffffffffffffffffffffffff1602179055508173ffffffffffffffffffffffffffffffffffffffff168173ffffffffffffffffffffffffffffffffffffffff167f8be0079c531659141344cd1fd0a4f28419497f9722a3daafe3b4186f6b6457e060405160405180910390a35050565b8173ffffffffffffffffffffffffffffffffffffffff168373ffffffffffffffffffffffffffffffffffffffff1614156123a1576040517f08c379a000000000000000000000000000000000000000000000000000000000815260040161239890613d6f565b60405180910390fd5b80600660008573ffffffffffffffffffffffffffffffffffffffff1673ffffffffffffffffffffffffffffffffffffffff16815260200190815260200160002060008473ffffffffffffffffffffffffffffffffffffffff1673ffffffffffffffffffffffffffffffffffffffff16815260200190815260200160002060006101000a81548160ff0219169083151502179055508173ffffffffffffffffffffffffffffffffffffffff168373ffffffffffffffffffffffffffffffffffffffff167f17307eab39ab6107e8899845ad3d59bd9653f200f220920489ca2b5937696c31836040516124929190613c90565b60405180910390a3505050565b6124aa848484611ff4565b6124b68484848461285f565b6124f5576040517f08c379a00000000000000000000000000000000000000000000000000000000081526004016124ec90613d0f565b60405180910390fd5b50505050565b6060600c805461250a9061448d565b80601f01602080910402602001604051908101604052809291908181526020018280546125369061448d565b80156125835780601f1061255857610100808354040283529160200191612583565b820191906000526020600020905b81548152906001019060200180831161256657829003601f168201915b5050505050905090565b606060008214156125d5576040518060400160405280600181526020017f300000000000000000000000000000000000000000000000000000000000000081525090506126e9565b600082905060005b600082146126075780806125f0906144f0565b915050600a826126009190614327565b91506125dd565b60008167ffffffffffffffff81111561262357612622614642565b5b6040519080825280601f01601f1916602001820160405280156126555781602001600182028036833780820191505090505b5090505b600085146126e25760018261266e9190614358565b9150600a8561267d9190614555565b603061268991906142d1565b60f81b81838151811061269f5761269e614613565b5b60200101907effffffffffffffffffffffffffffffffffffffffffffffffffffffffffffff1916908160001a905350600a856126db9190614327565b9450612659565b8093505050505b919050565b60006126f982610f95565b9050612707816000846127ff565b612712600083611e30565b6001600460008373ffffffffffffffffffffffffffffffffffffffff1673ffffffffffffffffffffffffffffffffffffffff16815260200190815260200160002060008282546127629190614358565b925050819055506003600083815260200190815260200160002060006101000a81549073ffffffffffffffffffffffffffffffffffffffff021916905581600073ffffffffffffffffffffffffffffffffffffffff168273ffffffffffffffffffffffffffffffffffffffff167fddf252ad1be2c89b69c2b068fc378daa952ba7f163c4a11628f55a4df523b3ef60405160405180910390a45050565b505050565b61280e83836129f6565b61281b600084848461285f565b61285a576040517f08c379a000000000000000000000000000000000000000000000000000000000815260040161285190613d0f565b60405180910390fd5b505050565b60006128808473ffffffffffffffffffffffffffffffffffffffff16612b7b565b156129e9578373ffffffffffffffffffffffffffffffffffffffff1663150b7a026128a9611e28565b8786866040518563ffffffff1660e01b81526004016128cb9493929190613c1b565b602060405180830381600087803b1580156128e557600080fd5b505af192505050801561291657506040513d601f19601f8201168201806040525081019061291391906130ef565b60015b612999573d8060008114612946576040519150601f19603f3d011682016040523d82523d6000602084013e61294b565b606091505b50600081511415612991576040517f08c379a000000000000000000000000000000000000000000000000000000000815260040161298890613d0f565b60405180910390fd5b805181602001fd5b63150b7a0260e01b7bffffffffffffffffffffffffffffffffffffffffffffffffffffffff1916817bffffffffffffffffffffffffffffffffffffffffffffffffffffffff1916149150506129ee565b600190505b949350505050565b600073ffffffffffffffffffffffffffffffffffffffff168273ffffffffffffffffffffffffffffffffffffffff161415612a66576040517f08c379a0000000000000000000000000000000000000000000000000000000008152600401612a5d90613eaf565b60405180910390fd5b612a72600083836127ff565b6001600460008473ffffffffffffffffffffffffffffffffffffffff1673ffffffffffffffffffffffffffffffffffffffff1681526020019081526020016000206000828254612ac291906142d1565b92505081905550816003600083815260200190815260200160002060006101000a81548173ffffffffffffffffffffffffffffffffffffffff021916908373ffffffffffffffffffffffffffffffffffffffff160217905550808273ffffffffffffffffffffffffffffffffffffffff16600073ffffffffffffffffffffffffffffffffffffffff167fddf252ad1be2c89b69c2b068fc378daa952ba7f163c4a11628f55a4df523b3ef60405160405180910390a45050565b600080823b905060008111915050919050565b828054612b9a9061448d565b90600052602060002090601f016020900481019282612bbc5760008555612c03565b82601f10612bd557805160ff1916838001178555612c03565b82800160010185558215612c03579182015b82811115612c02578251825591602001919060010190612be7565b5b509050612c109190612c9a565b5090565b828054612c209061448d565b90600052602060002090601f016020900481019282612c425760008555612c89565b82601f10612c5b57803560ff1916838001178555612c89565b82800160010185558215612c89579182015b82811115612c88578235825591602001919060010190612c6d565b5b509050612c969190612c9a565b5090565b5b80821115612cb3576000816000905550600101612c9b565b5090565b6000612cca612cc5846141f7565b6141d2565b905082815260208101848484011115612ce657612ce5614680565b5b612cf184828561444b565b509392505050565b6000612d0c612d0784614228565b6141d2565b905082815260208101848484011115612d2857612d27614680565b5b612d3384828561444b565b509392505050565b600081359050612d4a81614d83565b92915050565b600081519050612d5f81614d9a565b92915050565b600081359050612d7481614db1565b92915050565b600081359050612d8981614dc8565b92915050565b600081519050612d9e81614dc8565b92915050565b60008083601f840112612dba57612db9614676565b5b8235905067ffffffffffffffff811115612dd757612dd6614671565b5b602083019150836001820283011115612df357612df261467b565b5b9250929050565b600082601f830112612e0f57612e0e614676565b5b8135612e1f848260208601612cb7565b91505092915050565b600082601f830112612e3d57612e3c614676565b5b8135612e4d848260208601612cf9565b91505092915050565b600081359050612e6581614ddf565b92915050565b600081359050612e7a81614df6565b92915050565b600081519050612e8f81614df6565b92915050565b600081359050612ea481614e0d565b92915050565b600081359050612eb981614e24565b92915050565b600060208284031215612ed557612ed461468a565b5b6000612ee384828501612d3b565b91505092915050565b60008060408385031215612f0357612f0261468a565b5b6000612f1185828601612d50565b9250506020612f2285828601612e80565b9150509250929050565b60008060408385031215612f4357612f4261468a565b5b6000612f5185828601612d3b565b9250506020612f6285828601612d3b565b9150509250929050565b600080600060608486031215612f8557612f8461468a565b5b6000612f9386828701612d3b565b9350506020612fa486828701612d3b565b9250506040612fb586828701612e6b565b9150509250925092565b60008060008060808587031215612fd957612fd861468a565b5b6000612fe787828801612d3b565b9450506020612ff887828801612d3b565b935050604061300987828801612e6b565b925050606085013567ffffffffffffffff81111561302a57613029614685565b5b61303687828801612dfa565b91505092959194509250565b600080604083850312156130595761305861468a565b5b600061306785828601612d3b565b925050602061307885828601612d65565b9150509250929050565b600080604083850312156130995761309861468a565b5b60006130a785828601612d3b565b92505060206130b885828601612e6b565b9150509250929050565b6000602082840312156130d8576130d761468a565b5b60006130e684828501612d7a565b91505092915050565b6000602082840312156131055761310461468a565b5b600061311384828501612d8f565b91505092915050565b6000602082840312156131325761313161468a565b5b600082013567ffffffffffffffff8111156131505761314f614685565b5b61315c84828501612e28565b91505092915050565b60006020828403121561317b5761317a61468a565b5b600061318984828501612e56565b91505092915050565b6000806000604084860312156131ab576131aa61468a565b5b60006131b986828701612e56565b935050602084013567ffffffffffffffff8111156131da576131d9614685565b5b6131e686828701612da4565b92509250509250925092565b60008060006060848603121561320b5761320a61468a565b5b600061321986828701612e56565b935050602084013567ffffffffffffffff81111561323a57613239614685565b5b61324686828701612dfa565b925050604061325786828701612e6b565b9150509250925092565b60008060008060006080868803121561327d5761327c61468a565b5b600061328b88828901612e56565b955050602086013567ffffffffffffffff8111156132ac576132ab614685565b5b6132b888828901612dfa565b94505060406132c988828901612e95565b935050606086013567ffffffffffffffff8111156132ea576132e9614685565b5b6132f688828901612da4565b92509250509295509295909350565b6000806000806080858703121561331f5761331e61468a565b5b600061332d87828801612e56565b945050602085013567ffffffffffffffff81111561334e5761334d614685565b5b61335a87828801612dfa565b935050604061336b87828801612e95565b925050606085013567ffffffffffffffff81111561338c5761338b614685565b5b61339887828801612dfa565b91505092959194509250565b600080604083850312156133bb576133ba61468a565b5b60006133c985828601612e56565b92505060206133da85828601612e6b565b9150509250929050565b6000602082840312156133fa576133f961468a565b5b600061340884828501612e6b565b91505092915050565b600080604083850312156134285761342761468a565b5b600061343685828601612e80565b925050602061344785828601612e80565b9150509250929050565b6000602082840312156134675761346661468a565b5b600061347584828501612eaa565b91505092915050565b6134878161439e565b82525050565b6134968161438c565b82525050565b6134a5816143b0565b82525050565b6134b4816143bc565b82525050565b60006134c68385614299565b93506134d383858461444b565b6134dc8361468f565b840190509392505050565b60006134f383856142aa565b935061350083858461444b565b82840190509392505050565b600061351782614283565b6135218185614299565b935061353181856020860161445a565b61353a8161468f565b840191505092915050565b600061355082614283565b61355a81856142aa565b935061356a81856020860161445a565b80840191505092915050565b600081546135838161448d565b61358d8186614299565b945060018216600081146135a857600181146135ba576135ed565b60ff19831686526020860193506135ed565b6135c385614259565b60005b838110156135e5578154818901526001820191506020810190506135c6565b808801955050505b50505092915050565b600081546136038161448d565b61360d81866142aa565b9450600182166000811461362857600181146136395761366c565b60ff1983168652818601935061366c565b61364285614259565b60005b8381101561366457815481890152600182019150602081019050613645565b838801955050505b50505092915050565b60006136808261428e565b61368a81856142b5565b935061369a81856020860161445a565b6136a38161468f565b840191505092915050565b60006136b98261428e565b6136c381856142c6565b93506136d381856020860161445a565b80840191505092915050565b600081546136ec8161448d565b6136f681866142c6565b94506001821660008114613711576001811461372257613755565b60ff19831686528186019350613755565b61372b8561426e565b60005b8381101561374d5781548189015260018201915060208101905061372e565b838801955050505b50505092915050565b600061376b6047836142b5565b9150613776826146ad565b606082019050919050565b600061378e6032836142b5565b915061379982614722565b604082019050919050565b60006137b16026836142b5565b91506137bc82614771565b604082019050919050565b60006137d46024836142b5565b91506137df826147c0565b604082019050919050565b60006137f76019836142b5565b91506138028261480f565b602082019050919050565b600061381a602e836142b5565b915061382582614838565b604082019050919050565b600061383d601a836142b5565b915061384882614887565b602082019050919050565b60006138606022836142b5565b915061386b826148b0565b604082019050919050565b6000613883602c836142b5565b915061388e826148ff565b604082019050919050565b60006138a66038836142b5565b91506138b18261494e565b604082019050919050565b60006138c9602a836142b5565b91506138d48261499d565b604082019050919050565b60006138ec6029836142b5565b91506138f7826149ec565b604082019050919050565b600061390f602b836142b5565b915061391a82614a3b565b604082019050919050565b6000613932601e836142b5565b915061393d82614a8a565b602082019050919050565b60006139556020836142b5565b915061396082614ab3565b602082019050919050565b6000613978602c836142b5565b915061398382614adc565b604082019050919050565b600061399b6020836142b5565b91506139a682614b2b565b602082019050919050565b60006139be6034836142b5565b91506139c982614b54565b604082019050919050565b60006139e16029836142b5565b91506139ec82614ba3565b604082019050919050565b6000613a04602f836142b5565b9150613a0f82614bf2565b604082019050919050565b6000613a276021836142b5565b9150613a3282614c41565b604082019050919050565b6000613a4a6000836142aa565b9150613a5582614c90565b600082019050919050565b6000613a6d6031836142b5565b9150613a7882614c93565b604082019050919050565b6000613a906026836142b5565b9150613a9b82614ce2565b604082019050919050565b6000613ab3601c836142b5565b9150613abe82614d31565b602082019050919050565b6000613ad66017836142b5565b9150613ae182614d5a565b602082019050919050565b613af5816143f2565b82525050565b613b0c613b07826143f2565b614539565b82525050565b613b1b81614420565b82525050565b613b32613b2d82614420565b61454b565b82525050565b613b418161442a565b82525050565b6000613b548284866134e7565b91508190509392505050565b6000613b6c8284613545565b915081905092915050565b6000613b8382846135f6565b915081905092915050565b6000613b9a82866136ae565b9150613ba682856136ae565b9150613bb282846136df565b9150819050949350505050565b6000613bca82613a3d565b9150819050919050565b6000613be08285613afb565b600282019150613bf08284613b21565b6020820191508190509392505050565b6000602082019050613c15600083018461348d565b92915050565b6000608082019050613c30600083018761348d565b613c3d602083018661348d565b613c4a6040830185613b12565b8181036060830152613c5c818461350c565b905095945050505050565b6000604082019050613c7c600083018561348d565b613c896020830184613b12565b9392505050565b6000602082019050613ca5600083018461349c565b92915050565b60006020820190508181036000830152613cc5818461350c565b905092915050565b60006020820190508181036000830152613ce78184613675565b905092915050565b60006020820190508181036000830152613d088161375e565b9050919050565b60006020820190508181036000830152613d2881613781565b9050919050565b60006020820190508181036000830152613d48816137a4565b9050919050565b60006020820190508181036000830152613d68816137c7565b9050919050565b60006020820190508181036000830152613d88816137ea565b9050919050565b60006020820190508181036000830152613da88161380d565b9050919050565b60006020820190508181036000830152613dc881613830565b9050919050565b60006020820190508181036000830152613de881613853565b9050919050565b60006020820190508181036000830152613e0881613876565b9050919050565b60006020820190508181036000830152613e2881613899565b9050919050565b60006020820190508181036000830152613e48816138bc565b9050919050565b60006020820190508181036000830152613e68816138df565b9050919050565b60006020820190508181036000830152613e8881613902565b9050919050565b60006020820190508181036000830152613ea881613925565b9050919050565b60006020820190508181036000830152613ec881613948565b9050919050565b60006020820190508181036000830152613ee88161396b565b9050919050565b60006020820190508181036000830152613f088161398e565b9050919050565b60006020820190508181036000830152613f28816139b1565b9050919050565b60006020820190508181036000830152613f48816139d4565b9050919050565b60006020820190508181036000830152613f68816139f7565b9050919050565b60006020820190508181036000830152613f8881613a1a565b9050919050565b60006020820190508181036000830152613fa881613a60565b9050919050565b60006020820190508181036000830152613fc881613a83565b9050919050565b60006020820190508181036000830152613fe881613aa6565b9050919050565b6000602082019050818103600083015261400881613ac9565b9050919050565b600060a0820190506140246000830188613aec565b614031602083018761348d565b8181036040830152614043818661350c565b9050614052606083018561349c565b8181036080830152614064818461350c565b90509695505050505050565b60006080820190506140856000830188613aec565b8181036020830152614097818761350c565b90506140a66040830186613b38565b81810360608301526140b98184866134ba565b90509695505050505050565b60006080820190506140da6000830187613aec565b81810360208301526140ec818661350c565b90506140fb6040830185613b38565b818103606083015261410d818461350c565b905095945050505050565b600060c08201905061412d6000830189613aec565b818103602083015261413f8188613576565b90508181036040830152614153818761350c565b9050614162606083018661347e565b61416f608083018561348d565b81810360a0830152614181818461350c565b9050979650505050505050565b60006020820190506141a36000830184613b12565b92915050565b60006040820190506141be6000830185613b12565b6141cb60208301846134ab565b9392505050565b60006141dc6141ed565b90506141e882826144bf565b919050565b6000604051905090565b600067ffffffffffffffff82111561421257614211614642565b5b61421b8261468f565b9050602081019050919050565b600067ffffffffffffffff82111561424357614242614642565b5b61424c8261468f565b9050602081019050919050565b60008190508160005260206000209050919050565b60008190508160005260206000209050919050565b600081519050919050565b600081519050919050565b600082825260208201905092915050565b600081905092915050565b600082825260208201905092915050565b600081905092915050565b60006142dc82614420565b91506142e783614420565b9250827fffffffffffffffffffffffffffffffffffffffffffffffffffffffffffffffff0382111561431c5761431b614586565b5b828201905092915050565b600061433282614420565b915061433d83614420565b92508261434d5761434c6145b5565b5b828204905092915050565b600061436382614420565b915061436e83614420565b92508282101561438157614380614586565b5b828203905092915050565b600061439782614400565b9050919050565b60006143a982614400565b9050919050565b60008115159050919050565b6000819050919050565b60007fffffffff0000000000000000000000000000000000000000000000000000000082169050919050565b600061ffff82169050919050565b600073ffffffffffffffffffffffffffffffffffffffff82169050919050565b6000819050919050565b600067ffffffffffffffff82169050919050565b600060ff82169050919050565b82818337600083830152505050565b60005b8381101561447857808201518184015260208101905061445d565b83811115614487576000848401525b50505050565b600060028204905060018216806144a557607f821691505b602082108114156144b9576144b86145e4565b5b50919050565b6144c88261468f565b810181811067ffffffffffffffff821117156144e7576144e6614642565b5b80604052505050565b60006144fb82614420565b91507fffffffffffffffffffffffffffffffffffffffffffffffffffffffffffffffff82141561452e5761452d614586565b5b600182019050919050565b6000614544826146a0565b9050919050565b6000819050919050565b600061456082614420565b915061456b83614420565b92508261457b5761457a6145b5565b5b828206905092915050565b7f4e487b7100000000000000000000000000000000000000000000000000000000600052601160045260246000fd5b7f4e487b7100000000000000000000000000000000000000000000000000000000600052601260045260246000fd5b7f4e487b7100000000000000000000000000000000000000000000000000000000600052602260045260246000fd5b7f4e487b7100000000000000000000000000000000000000000000000000000000600052603260045260246000fd5b7f4e487b7100000000000000000000000000000000000000000000000000000000600052604160045260246000fd5b600080fd5b600080fd5b600080fd5b600080fd5b600080fd5b600080fd5b6000601f19601f8301169050919050565b60008160f01b9050919050565b7f47473a206d73672e76616c7565206e6f7420656e6f75676820746f20636f766560008201527f72206d6573736167654665652e2053656e642067617320666f72206d6573736160208201527f6765206665657300000000000000000000000000000000000000000000000000604082015250565b7f4552433732313a207472616e7366657220746f206e6f6e20455243373231526560008201527f63656976657220696d706c656d656e7465720000000000000000000000000000602082015250565b7f4f776e61626c653a206e6577206f776e657220697320746865207a65726f206160008201527f6464726573730000000000000000000000000000000000000000000000000000602082015250565b7f4552433732313a207472616e7366657220746f20746865207a65726f2061646460008201527f7265737300000000000000000000000000000000000000000000000000000000602082015250565b7f4552433732313a20617070726f766520746f2063616c6c657200000000000000600082015250565b7f5468697320636861696e2069732063757272656e746c7920756e617661696c6160008201527f626c6520666f722074726176656c000000000000000000000000000000000000602082015250565b7f4c617965725a65726f3a20696e76616c6964207061796c6f6164000000000000600082015250565b7f596f75206d757374206f776e2074686520746f6b656e20746f2074726176657260008201527f7365000000000000000000000000000000000000000000000000000000000000602082015250565b7f4552433732313a206f70657261746f7220717565727920666f72206e6f6e657860008201527f697374656e7420746f6b656e0000000000000000000000000000000000000000602082015250565b7f4552433732313a20617070726f76652063616c6c6572206973206e6f74206f7760008201527f6e6572206e6f7220617070726f76656420666f7220616c6c0000000000000000602082015250565b7f4552433732313a2062616c616e636520717565727920666f7220746865207a6560008201527f726f206164647265737300000000000000000000000000000000000000000000602082015250565b7f4552433732313a206f776e657220717565727920666f72206e6f6e657869737460008201527f656e7420746f6b656e0000000000000000000000000000000000000000000000602082015250565b7f4e6f6e626c6f636b696e6752656365697665723a2063616c6c6572206d75737460008201527f206265204272696467652e000000000000000000000000000000000000000000602082015250565b7f47473a204d61782032204e46547320706572207472616e73616374696f6e0000600082015250565b7f4552433732313a206d696e7420746f20746865207a65726f2061646472657373600082015250565b7f4552433732313a20617070726f76656420717565727920666f72206e6f6e657860008201527f697374656e7420746f6b656e0000000000000000000000000000000000000000602082015250565b7f4f776e61626c653a2063616c6c6572206973206e6f7420746865206f776e6572600082015250565b7f4e6f6e626c6f636b696e6752656365697665723a20696e76616c696420736f7560008201527f7263652073656e64696e6720636f6e7472616374000000000000000000000000602082015250565b7f4552433732313a207472616e73666572206f6620746f6b656e2074686174206960008201527f73206e6f74206f776e0000000000000000000000000000000000000000000000602082015250565b7f4552433732314d657461646174613a2055524920717565727920666f72206e6f60008201527f6e6578697374656e7420746f6b656e0000000000000000000000000000000000602082015250565b7f4552433732313a20617070726f76616c20746f2063757272656e74206f776e6560008201527f7200000000000000000000000000000000000000000000000000000000000000602082015250565b50565b7f4552433732313a207472616e736665722063616c6c6572206973206e6f74206f60008201527f776e6572206e6f7220617070726f766564000000000000000000000000000000602082015250565b7f4e6f6e626c6f636b696e6752656365697665723a206e6f2073746f726564206d60008201527f6573736167650000000000000000000000000000000000000000000000000000602082015250565b7f47473a204661696c656420746f20776974686472617720457468657200000000600082015250565b7f47473a204d696e74206578636565647320737570706c79000000000000000000600082015250565b614d8c8161438c565b8114614d9757600080fd5b50565b614da38161439e565b8114614dae57600080fd5b50565b614dba816143b0565b8114614dc557600080fd5b50565b614dd1816143c6565b8114614ddc57600080fd5b50565b614de8816143f2565b8114614df357600080fd5b50565b614dff81614420565b8114614e0a57600080fd5b50565b614e168161442a565b8114614e2157600080fd5b50565b614e2d8161443e565b8114614e3857600080fd5b5056fea26469706673582212208766c159b09982065e13d59b20dd8278ca1f1b582c4859acdc6bfcd75c0544e264736f6c63430008070033",
  "devdoc": {
    "kind": "dev",
    "methods": {
      "approve(address,uint256)": {
        "details": "See {IERC721-approve}."
      },
      "balanceOf(address)": {
        "details": "See {IERC721-balanceOf}."
      },
      "getApproved(uint256)": {
        "details": "See {IERC721-getApproved}."
      },
      "isApprovedForAll(address,address)": {
        "details": "See {IERC721-isApprovedForAll}."
      },
      "name()": {
        "details": "See {IERC721Metadata-name}."
      },
      "owner()": {
        "details": "Returns the address of the current owner."
      },
      "ownerOf(uint256)": {
        "details": "See {IERC721-ownerOf}."
      },
      "renounceOwnership()": {
        "details": "Leaves the contract without owner. It will not be possible to call `onlyOwner` functions anymore. Can only be called by the current owner. NOTE: Renouncing ownership will leave the contract without an owner, thereby removing any functionality that is only available to the owner."
      },
      "safeTransferFrom(address,address,uint256)": {
        "details": "See {IERC721-safeTransferFrom}."
      },
      "safeTransferFrom(address,address,uint256,bytes)": {
        "details": "See {IERC721-safeTransferFrom}."
      },
      "setApprovalForAll(address,bool)": {
        "details": "See {IERC721-setApprovalForAll}."
      },
      "supportsInterface(bytes4)": {
        "details": "See {IERC165-supportsInterface}."
      },
      "symbol()": {
        "details": "See {IERC721Metadata-symbol}."
      },
      "tokenURI(uint256)": {
        "details": "See {IERC721Metadata-tokenURI}."
      },
      "transferFrom(address,address,uint256)": {
        "details": "See {IERC721-transferFrom}."
      },
      "transferOwnership(address)": {
        "details": "Transfers ownership of the contract to a new account (`newOwner`). Can only be called by the current owner."
      }
    },
    "version": 1
  },
  "userdoc": {
    "kind": "user",
    "methods": {},
    "version": 1
  },
  "storageLayout": {
    "storage": [
      {
        "astId": 584,
        "contract": "contracts/OmniTestNFT.sol:OmniTestNFT",
        "label": "_owner",
        "offset": 0,
        "slot": "0",
        "type": "t_address"
      },
      {
        "astId": 897,
        "contract": "contracts/OmniTestNFT.sol:OmniTestNFT",
        "label": "_name",
        "offset": 0,
        "slot": "1",
        "type": "t_string_storage"
      },
      {
        "astId": 899,
        "contract": "contracts/OmniTestNFT.sol:OmniTestNFT",
        "label": "_symbol",
        "offset": 0,
        "slot": "2",
        "type": "t_string_storage"
      },
      {
        "astId": 903,
        "contract": "contracts/OmniTestNFT.sol:OmniTestNFT",
        "label": "_owners",
        "offset": 0,
        "slot": "3",
        "type": "t_mapping(t_uint256,t_address)"
      },
      {
        "astId": 907,
        "contract": "contracts/OmniTestNFT.sol:OmniTestNFT",
        "label": "_balances",
        "offset": 0,
        "slot": "4",
        "type": "t_mapping(t_address,t_uint256)"
      },
      {
        "astId": 911,
        "contract": "contracts/OmniTestNFT.sol:OmniTestNFT",
        "label": "_tokenApprovals",
        "offset": 0,
        "slot": "5",
        "type": "t_mapping(t_uint256,t_address)"
      },
      {
        "astId": 917,
        "contract": "contracts/OmniTestNFT.sol:OmniTestNFT",
        "label": "_operatorApprovals",
        "offset": 0,
        "slot": "6",
        "type": "t_mapping(t_address,t_mapping(t_address,t_bool))"
      },
      {
        "astId": 920,
        "contract": "contracts/OmniTestNFT.sol:OmniTestNFT",
        "label": "baseExtension",
        "offset": 0,
        "slot": "7",
        "type": "t_string_storage"
      },
      {
        "astId": 11,
        "contract": "contracts/OmniTestNFT.sol:OmniTestNFT",
        "label": "endpoint",
        "offset": 0,
        "slot": "8",
        "type": "t_contract(ILayerZeroEndpoint)826"
      },
      {
        "astId": 25,
        "contract": "contracts/OmniTestNFT.sol:OmniTestNFT",
        "label": "failedMessages",
        "offset": 0,
        "slot": "9",
        "type": "t_mapping(t_uint16,t_mapping(t_bytes_memory_ptr,t_mapping(t_uint256,t_struct(FailedMessages)16_storage)))"
      },
      {
        "astId": 29,
        "contract": "contracts/OmniTestNFT.sol:OmniTestNFT",
        "label": "trustedRemoteLookup",
        "offset": 0,
        "slot": "10",
        "type": "t_mapping(t_uint16,t_bytes_storage)"
      },
      {
        "astId": 294,
        "contract": "contracts/OmniTestNFT.sol:OmniTestNFT",
        "label": "_owner",
        "offset": 0,
        "slot": "11",
        "type": "t_address"
      },
      {
        "astId": 296,
        "contract": "contracts/OmniTestNFT.sol:OmniTestNFT",
        "label": "baseURI",
        "offset": 0,
        "slot": "12",
        "type": "t_string_storage"
      },
      {
        "astId": 298,
        "contract": "contracts/OmniTestNFT.sol:OmniTestNFT",
        "label": "nextTokenId",
        "offset": 0,
        "slot": "13",
        "type": "t_uint256"
      },
      {
        "astId": 300,
        "contract": "contracts/OmniTestNFT.sol:OmniTestNFT",
        "label": "MAX_MINT",
        "offset": 0,
        "slot": "14",
        "type": "t_uint256"
      },
      {
        "astId": 303,
        "contract": "contracts/OmniTestNFT.sol:OmniTestNFT",
        "label": "gasForDestinationLzReceive",
        "offset": 0,
        "slot": "15",
        "type": "t_uint256"
      }
    ],
    "types": {
      "t_address": {
        "encoding": "inplace",
        "label": "address",
        "numberOfBytes": "20"
      },
      "t_bool": {
        "encoding": "inplace",
        "label": "bool",
        "numberOfBytes": "1"
      },
      "t_bytes32": {
        "encoding": "inplace",
        "label": "bytes32",
        "numberOfBytes": "32"
      },
      "t_bytes_memory_ptr": {
        "encoding": "bytes",
        "label": "bytes",
        "numberOfBytes": "32"
      },
      "t_bytes_storage": {
        "encoding": "bytes",
        "label": "bytes",
        "numberOfBytes": "32"
      },
      "t_contract(ILayerZeroEndpoint)826": {
        "encoding": "inplace",
        "label": "contract ILayerZeroEndpoint",
        "numberOfBytes": "20"
      },
      "t_mapping(t_address,t_bool)": {
        "encoding": "mapping",
        "key": "t_address",
        "label": "mapping(address => bool)",
        "numberOfBytes": "32",
        "value": "t_bool"
      },
      "t_mapping(t_address,t_mapping(t_address,t_bool))": {
        "encoding": "mapping",
        "key": "t_address",
        "label": "mapping(address => mapping(address => bool))",
        "numberOfBytes": "32",
        "value": "t_mapping(t_address,t_bool)"
      },
      "t_mapping(t_address,t_uint256)": {
        "encoding": "mapping",
        "key": "t_address",
        "label": "mapping(address => uint256)",
        "numberOfBytes": "32",
        "value": "t_uint256"
      },
      "t_mapping(t_bytes_memory_ptr,t_mapping(t_uint256,t_struct(FailedMessages)16_storage))": {
        "encoding": "mapping",
        "key": "t_bytes_memory_ptr",
        "label": "mapping(bytes => mapping(uint256 => struct NonblockingReceiver.FailedMessages))",
        "numberOfBytes": "32",
        "value": "t_mapping(t_uint256,t_struct(FailedMessages)16_storage)"
      },
      "t_mapping(t_uint16,t_bytes_storage)": {
        "encoding": "mapping",
        "key": "t_uint16",
        "label": "mapping(uint16 => bytes)",
        "numberOfBytes": "32",
        "value": "t_bytes_storage"
      },
      "t_mapping(t_uint16,t_mapping(t_bytes_memory_ptr,t_mapping(t_uint256,t_struct(FailedMessages)16_storage)))": {
        "encoding": "mapping",
        "key": "t_uint16",
        "label": "mapping(uint16 => mapping(bytes => mapping(uint256 => struct NonblockingReceiver.FailedMessages)))",
        "numberOfBytes": "32",
        "value": "t_mapping(t_bytes_memory_ptr,t_mapping(t_uint256,t_struct(FailedMessages)16_storage))"
      },
      "t_mapping(t_uint256,t_address)": {
        "encoding": "mapping",
        "key": "t_uint256",
        "label": "mapping(uint256 => address)",
        "numberOfBytes": "32",
        "value": "t_address"
      },
      "t_mapping(t_uint256,t_struct(FailedMessages)16_storage)": {
        "encoding": "mapping",
        "key": "t_uint256",
        "label": "mapping(uint256 => struct NonblockingReceiver.FailedMessages)",
        "numberOfBytes": "32",
        "value": "t_struct(FailedMessages)16_storage"
      },
      "t_string_storage": {
        "encoding": "bytes",
        "label": "string",
        "numberOfBytes": "32"
      },
      "t_struct(FailedMessages)16_storage": {
        "encoding": "inplace",
        "label": "struct NonblockingReceiver.FailedMessages",
        "members": [
          {
            "astId": 13,
            "contract": "contracts/OmniTestNFT.sol:OmniTestNFT",
            "label": "payloadLength",
            "offset": 0,
            "slot": "0",
            "type": "t_uint256"
          },
          {
            "astId": 15,
            "contract": "contracts/OmniTestNFT.sol:OmniTestNFT",
            "label": "payloadHash",
            "offset": 0,
            "slot": "1",
            "type": "t_bytes32"
          }
        ],
        "numberOfBytes": "64"
      },
      "t_uint16": {
        "encoding": "inplace",
        "label": "uint16",
        "numberOfBytes": "2"
      },
      "t_uint256": {
        "encoding": "inplace",
        "label": "uint256",
        "numberOfBytes": "32"
      }
    }
  }
}